Component: ARM Compiler 5.05 update 1 (build 106) Tool: armlink [4d0efa]

==============================================================================

Section Cross References

    main.o(i.CompareJumpCommond) refers to strlen.o(.text) for strlen
    main.o(i.CompareJumpCommond) refers to main.o(.data) for rightCommond
    main.o(i.RCC_UserInit) refers to stm32f10x_rcc.o(i.RCC_DeInit) for RCC_DeInit
    main.o(i.RCC_UserInit) refers to stm32f10x_rcc.o(i.RCC_HSEConfig) for RCC_HSEConfig
    main.o(i.RCC_UserInit) refers to stm32f10x_rcc.o(i.RCC_WaitForHSEStartUp) for RCC_WaitForHSEStartUp
    main.o(i.RCC_UserInit) refers to stm32f10x_rcc.o(i.RCC_HCLKConfig) for RCC_HCLKConfig
    main.o(i.RCC_UserInit) refers to stm32f10x_rcc.o(i.RCC_PCLK2Config) for RCC_PCLK2Config
    main.o(i.RCC_UserInit) refers to stm32f10x_rcc.o(i.RCC_PCLK1Config) for RCC_PCLK1Config
    main.o(i.RCC_UserInit) refers to stm32f10x_rcc.o(i.RCC_PLLConfig) for RCC_PLLConfig
    main.o(i.RCC_UserInit) refers to stm32f10x_rcc.o(i.RCC_PLLCmd) for RCC_PLLCmd
    main.o(i.RCC_UserInit) refers to stm32f10x_rcc.o(i.RCC_GetFlagStatus) for RCC_GetFlagStatus
    main.o(i.RCC_UserInit) refers to stm32f10x_rcc.o(i.RCC_SYSCLKConfig) for RCC_SYSCLKConfig
    main.o(i.RCC_UserInit) refers to stm32f10x_rcc.o(i.RCC_GetSYSCLKSource) for RCC_GetSYSCLKSource
    main.o(i.main) refers to main.o(i.RCC_UserInit) for RCC_UserInit
    main.o(i.main) refers to usart.o(i.USART2_Init) for USART2_Init
    main.o(i.main) refers to tm1650_1.o(i.TM1650_1_Init) for TM1650_1_Init
    main.o(i.main) refers to tm1650_2.o(i.TM1650_2_Init) for TM1650_2_Init
    main.o(i.main) refers to display.o(i.DisplayTest) for DisplayTest
==============================================================================

Removing Unused input sections from the image.

    Removing system_stm32f10x.o(i.SystemCoreClockUpdate), (164 bytes).
    Removing system_stm32f10x.o(.data), (20 bytes).
    Removing core_cm3.o(.emb_text), (32 bytes).
    Removing startup_stm32f10x_md.o(HEAP), (512 bytes).
    Removing misc.o(i.NVIC_SetVectorTable), (20 bytes).
    Removing misc.o(i.NVIC_SystemLPConfig), (32 bytes).
    Removing misc.o(i.SysTick_CLKSourceConfig), (40 bytes).
    Removing stm32f10x_adc.o(i.ADC_AnalogWatchdogCmd), (20 bytes).
    Removing stm32f10x_adc.o(i.ADC_AnalogWatchdogSingleChannelConfig), (16 bytes).
    Removing stm32f10x_adc.o(i.ADC_AnalogWatchdogThresholdsConfig), (6 bytes).
    Removing stm32f10x_adc.o(i.ADC_AutoInjectedConvCmd), (22 bytes).
    Removing stm32f10x_adc.o(i.ADC_ClearFlag), (6 bytes).
    Removing stm32f10x_adc.o(i.ADC_ClearITPendingBit), (10 bytes).
    Removing stm32f10x_adc.o(i.ADC_Cmd), (22 bytes).
    Removing stm32f10x_adc.o(i.ADC_DMACmd), (22 bytes).
    Removing stm32f10x_adc.o(i.ADC_DeInit), (92 bytes).
    Removing stm32f10x_adc.o(i.ADC_DiscModeChannelCountConfig), (24 bytes).
    Removing stm32f10x_adc.o(i.ADC_DiscModeCmd), (22 bytes).
==============================================================================

Image Symbol Table

    Local Symbols

    Symbol Name                              Value     Ov Type        Size  Object(Section)

    ../clib/microlib/init/entry.s            0x00000000   Number         0  entry11a.o ABSOLUTE
    ../clib/microlib/init/entry.s            0x00000000   Number         0  entry.o ABSOLUTE
    ../clib/microlib/init/entry.s            0x00000000   Number         0  entry11b.o ABSOLUTE
    ../clib/microlib/init/entry.s            0x00000000   Number         0  entry7b.o ABSOLUTE
    ../clib/microlib/init/entry.s            0x00000000   Number         0  entry8a.o ABSOLUTE
    ../clib/microlib/init/entry.s            0x00000000   Number         0  entry10b.o ABSOLUTE
    ../clib/microlib/init/entry.s            0x00000000   Number         0  entry2.o ABSOLUTE
    ../clib/microlib/init/entry.s            0x00000000   Number         0  entry10a.o ABSOLUTE
    ../clib/microlib/init/entry.s            0x00000000   Number         0  entry5.o ABSOLUTE
    ../clib/microlib/init/entry.s            0x00000000   Number         0  entry9b.o ABSOLUTE
    ../clib/microlib/init/entry.s            0x00000000   Number         0  entry8b.o ABSOLUTE
    ../clib/microlib/init/entry.s            0x00000000   Number         0  entry9a.o ABSOLUTE
    ../clib/microlib/init/entry.s            0x00000000   Number         0  entry7a.o ABSOLUTE
    ../clib/microlib/string/strlen.c         0x00000000   Number         0  strlen.o ABSOLUTE
    ..\FML\display.c                         0x00000000   Number         0  display.o ABSOLUTE
    ..\FML\iap.c                             0x00000000   Number         0  iap.o ABSOLUTE
    ..\HAL\flash.c                           0x00000000   Number         0  flash.o ABSOLUTE
    ..\HAL\global.c                          0x00000000   Number         0  global.o ABSOLUTE
    ..\HAL\sys.c                             0x00000000   Number         0  sys.o ABSOLUTE
    ..\HAL\tm1650_1.c                        0x00000000   Number         0  tm1650_1.o ABSOLUTE
    ..\HAL\tm1650_2.c                        0x00000000   Number         0  tm1650_2.o ABSOLUTE
    ..\HAL\usart.c                           0x00000000   Number         0  usart.o ABSOLUTE
    ..\\HAL\\sys.c                           0x00000000   Number         0  sys.o ABSOLUTE
    ..\\core\\core_cm3.c                     0x00000000   Number         0  core_cm3.o ABSOLUTE
    ..\core\core_cm3.c                       0x00000000   Number         0  core_cm3.o ABSOLUTE
    ..\core\startup_stm32f10x_md.s           0x00000000   Number         0  startup_stm32f10x_md.o ABSOLUTE
    ..\stm32fx_fwlib\src\misc.c              0x00000000   Number         0  misc.o ABSOLUTE
    ..\stm32fx_fwlib\src\stm32f10x_adc.c     0x00000000   Number         0  stm32f10x_adc.o ABSOLUTE
    ..\stm32fx_fwlib\src\stm32f10x_bkp.c     0x00000000   Number         0  stm32f10x_bkp.o ABSOLUTE
    ..\stm32fx_fwlib\src\stm32f10x_can.c     0x00000000   Number         0  stm32f10x_can.o ABSOLUTE
    ..\stm32fx_fwlib\src\stm32f10x_cec.c     0x00000000   Number         0  stm32f10x_cec.o ABSOLUTE
    ..\stm32fx_fwlib\src\stm32f10x_crc.c     0x00000000   Number         0  stm32f10x_crc.o ABSOLUTE
    ..\stm32fx_fwlib\src\stm32f10x_dac.c     0x00000000   Number         0  stm32f10x_dac.o ABSOLUTE
    ..\stm32fx_fwlib\src\stm32f10x_dbgmcu.c  0x00000000   Number         0  stm32f10x_dbgmcu.o ABSOLUTE
    ..\stm32fx_fwlib\src\stm32f10x_dma.c     0x00000000   Number         0  stm32f10x_dma.o ABSOLUTE
    ..\stm32fx_fwlib\src\stm32f10x_exti.c    0x00000000   Number         0  stm32f10x_exti.o ABSOLUTE
    ..\stm32fx_fwlib\src\stm32f10x_flash.c   0x00000000   Number         0  stm32f10x_flash.o ABSOLUTE
    ..\stm32fx_fwlib\src\stm32f10x_fsmc.c    0x00000000   Number         0  stm32f10x_fsmc.o ABSOLUTE
    ..\stm32fx_fwlib\src\stm32f10x_gpio.c    0x00000000   Number         0  stm32f10x_gpio.o ABSOLUTE
    ..\stm32fx_fwlib\src\stm32f10x_i2c.c     0x00000000   Number         0  stm32f10x_i2c.o ABSOLUTE
    ..\stm32fx_fwlib\src\stm32f10x_iwdg.c    0x00000000   Number         0  stm32f10x_iwdg.o ABSOLUTE
    ..\stm32fx_fwlib\src\stm32f10x_pwr.c     0x00000000   Number         0  stm32f10x_pwr.o ABSOLUTE
    ..\stm32fx_fwlib\src\stm32f10x_rcc.c     0x00000000   Number         0  stm32f10x_rcc.o ABSOLUTE
    ..\stm32fx_fwlib\src\stm32f10x_rtc.c     0x00000000   Number         0  stm32f10x_rtc.o ABSOLUTE
    ..\stm32fx_fwlib\src\stm32f10x_sdio.c    0x00000000   Number         0  stm32f10x_sdio.o ABSOLUTE
    ..\stm32fx_fwlib\src\stm32f10x_spi.c     0x00000000   Number         0  stm32f10x_spi.o ABSOLUTE
    ..\stm32fx_fwlib\src\stm32f10x_tim.c     0x00000000   Number         0  stm32f10x_tim.o ABSOLUTE
    ..\stm32fx_fwlib\src\stm32f10x_usart.c   0x00000000   Number         0  stm32f10x_usart.o ABSOLUTE
    ..\stm32fx_fwlib\src\stm32f10x_wwdg.c    0x00000000   Number         0  stm32f10x_wwdg.o ABSOLUTE
    dc.s                                     0x00000000   Number         0  dc.o ABSOLUTE
    handlers.s                               0x00000000   Number         0  handlers.o ABSOLUTE
    init.s                                   0x00000000   Number         0  init.o ABSOLUTE
    main.c                                   0x00000000   Number         0  main.o ABSOLUTE
    stm32f10x_it.c                           0x00000000   Number         0  stm32f10x_it.o ABSOLUTE
    system_stm32f10x.c                       0x00000000   Number         0  system_stm32f10x.o ABSOLUTE
    RESET                                    0x08002800   Section      236  startup_stm32f10x_md.o(RESET)
    .ARM.Collect$$$$00000000                 0x080028ec   Section        0  entry.o(.ARM.Collect$$$$00000000)
    .ARM.Collect$$$$00000001                 0x080028ec   Section        4  entry2.o(.ARM.Collect$$$$00000001)
    .ARM.Collect$$$$00000004                 0x080028f0   Section        4  entry5.o(.ARM.Collect$$$$00000004)
    .ARM.Collect$$$$00000008                 0x080028f4   Section        0  entry7b.o(.ARM.Collect$$$$00000008)
    .ARM.Collect$$$$0000000A                 0x080028f4   Section        0  entry8b.o(.ARM.Collect$$$$0000000A)
    .ARM.Collect$$$$0000000B                 0x080028f4   Section        8  entry9a.o(.ARM.Collect$$$$0000000B)
    .ARM.Collect$$$$0000000D                 0x080028fc   Section        0  entry10a.o(.ARM.Collect$$$$0000000D)
    .ARM.Collect$$$$0000000F                 0x080028fc   Section        0  entry11a.o(.ARM.Collect$$$$0000000F)
    .ARM.Collect$$$$00002712                 0x080028fc   Section        4  entry2.o(.ARM.Collect$$$$00002712)
    __lit__00000000                          0x080028fc   Data           4  entry2.o(.ARM.Collect$$$$00002712)
    .emb_text                                0x08002900   Section        6  sys.o(.emb_text)
    .text                                    0x08002908   Section       36  startup_stm32f10x_md.o(.text)
    .text                                    0x0800292c   Section        0  strlen.o(.text)
    .text                                    0x0800293c   Section       36  init.o(.text)
    i.BusFault_Handler                       0x08002960   Section        0  stm32f10x_it.o(i.BusFault_Handler)
    i.CompareJumpCommond                     0x08002964   Section        0  main.o(i.CompareJumpCommond)
    i.DebugMon_Handler                       0x0800299c   Section        0  stm32f10x_it.o(i.DebugMon_Handler)
    i.DisplayTest                            0x0800299e   Section        0  display.o(i.DisplayTest)
    i.FLASH_ErasePage                        0x080029f0   Section        0  stm32f10x_flash.o(i.FLASH_ErasePage)
    i.FLASH_GetBank1Status                   0x08002a3c   Section        0  stm32f10x_flash.o(i.FLASH_GetBank1Status)
    i.FLASH_Lock                             0x08002a70   Section        0  stm32f10x_flash.o(i.FLASH_Lock)
    i.FLASH_ProgramHalfWord                  0x08002a84   Section        0  stm32f10x_flash.o(i.FLASH_ProgramHalfWord)
    i.FLASH_Read                             0x08002ac4   Section        0  flash.o(i.FLASH_Read)
    i.FLASH_ReadHalfWord                     0x08002ae6   Section        0  flash.o(i.FLASH_ReadHalfWord)
    i.FLASH_Unlock                           0x08002aec   Section        0  stm32f10x_flash.o(i.FLASH_Unlock)
    i.FLASH_WaitForLastOperation             0x08002b04   Section        0  stm32f10x_flash.o(i.FLASH_WaitForLastOperation)
    i.FLASH_Writ_NoCheck                     0x08002b2a   Section        0  flash.o(i.FLASH_Writ_NoCheck)
    i.FLASH_Write                            0x08002b50   Section        0  flash.o(i.FLASH_Write)
    i.GPIO_Init                              0x08002c38   Section        0  stm32f10x_gpio.o(i.GPIO_Init)
    i.GetNumFromChar                         0x08002d4e   Section        0  display.o(i.GetNumFromChar)
    i.HardFault_Handler                      0x08002de6   Section        0  stm32f10x_it.o(i.HardFault_Handler)
    i.MemManage_Handler                      0x08002dea   Section        0  stm32f10x_it.o(i.MemManage_Handler)
    i.NMI_Handler                            0x08002dee   Section        0  stm32f10x_it.o(i.NMI_Handler)
    i.NVIC_Init                              0x08002df0   Section        0  misc.o(i.NVIC_Init)
    i.NVIC_PriorityGroupConfig               0x08002e60   Section        0  misc.o(i.NVIC_PriorityGroupConfig)
    i.PendSV_Handler                         0x08002e74   Section        0  stm32f10x_it.o(i.PendSV_Handler)
    i.RCC_APB1PeriphClockCmd                 0x08002e78   Section        0  stm32f10x_rcc.o(i.RCC_APB1PeriphClockCmd)
    i.RCC_APB2PeriphClockCmd                 0x08002e98   Section        0  stm32f10x_rcc.o(i.RCC_APB2PeriphClockCmd)
    i.RCC_DeInit                             0x08002eb8   Section        0  stm32f10x_rcc.o(i.RCC_DeInit)
    i.RCC_GetClocksFreq                      0x08002f04   Section        0  stm32f10x_rcc.o(i.RCC_GetClocksFreq)
    i.RCC_GetFlagStatus                      0x08002fd8   Section        0  stm32f10x_rcc.o(i.RCC_GetFlagStatus)
    i.RCC_GetSYSCLKSource                    0x08003014   Section        0  stm32f10x_rcc.o(i.RCC_GetSYSCLKSource)
    i.RCC_HCLKConfig                         0x08003024   Section        0  stm32f10x_rcc.o(i.RCC_HCLKConfig)
    i.RCC_HSEConfig                          0x0800303c   Section        0  stm32f10x_rcc.o(i.RCC_HSEConfig)
    i.RCC_PCLK1Config                        0x08003088   Section        0  stm32f10x_rcc.o(i.RCC_PCLK1Config)
    i.RCC_PCLK2Config                        0x080030a0   Section        0  stm32f10x_rcc.o(i.RCC_PCLK2Config)
    i.RCC_PLLCmd                             0x080030b8   Section        0  stm32f10x_rcc.o(i.RCC_PLLCmd)
    i.RCC_PLLConfig                          0x080030c4   Section        0  stm32f10x_rcc.o(i.RCC_PLLConfig)
    i.RCC_SYSCLKConfig                       0x080030e0   Section        0  stm32f10x_rcc.o(i.RCC_SYSCLKConfig)
    i.RCC_UserInit                           0x080030f8   Section        0  main.o(i.RCC_UserInit)
    i.RCC_WaitForHSEStartUp                  0x08003152   Section        0  stm32f10x_rcc.o(i.RCC_WaitForHSEStartUp)
    i.SVC_Handler                            0x0800318a   Section        0  stm32f10x_it.o(i.SVC_Handler)
    i.SetSysClock                            0x0800318c   Section        0  system_stm32f10x.o(i.SetSysClock)
    SetSysClock                              0x0800318d   Thumb Code     8  system_stm32f10x.o(i.SetSysClock)
    i.SetSysClockTo72                        0x08003194   Section        0  system_stm32f10x.o(i.SetSysClockTo72)
    SetSysClockTo72                          0x08003195   Thumb Code   214  system_stm32f10x.o(i.SetSysClockTo72)
    i.SysTick_Handler                        0x08003274   Section        0  stm32f10x_it.o(i.SysTick_Handler)
    i.SystemInit                             0x08003278   Section        0  system_stm32f10x.o(i.SystemInit)
    i.TM1650_1_Dispiay_Digital               0x080032d8   Section        0  tm1650_1.o(i.TM1650_1_Dispiay_Digital)
    i.TM1650_1_I2C_Ack                       0x08003304   Section        0  tm1650_1.o(i.TM1650_1_I2C_Ack)
    i.TM1650_1_I2C_Start                     0x08003338   Section        0  tm1650_1.o(i.TM1650_1_I2C_Start)
    i.TM1650_1_I2C_Stop                      0x08003370   Section        0  tm1650_1.o(i.TM1650_1_I2C_Stop)
    i.TM1650_1_I2C_Write_Byte                0x0800339c   Section        0  tm1650_1.o(i.TM1650_1_I2C_Write_Byte)
    i.TM1650_1_Init                          0x08003404   Section        0  tm1650_1.o(i.TM1650_1_Init)
    i.TM1650_1_Write_Dat                     0x08003468   Section        0  tm1650_1.o(i.TM1650_1_Write_Dat)
    i.TM1650_2_Dispiay_Digital               0x0800348c   Section        0  tm1650_2.o(i.TM1650_2_Dispiay_Digital)
    i.TM1650_2_I2C_Ack                       0x080034b8   Section        0  tm1650_2.o(i.TM1650_2_I2C_Ack)
    i.TM1650_2_I2C_Start                     0x080034ec   Section        0  tm1650_2.o(i.TM1650_2_I2C_Start)
    i.TM1650_2_I2C_Stop                      0x08003524   Section        0  tm1650_2.o(i.TM1650_2_I2C_Stop)
    i.TM1650_2_I2C_Write_Byte                0x08003550   Section        0  tm1650_2.o(i.TM1650_2_I2C_Write_Byte)
    i.TM1650_2_Init                          0x080035b8   Section        0  tm1650_2.o(i.TM1650_2_Init)
    i.TM1650_2_Write_Dat                     0x0800361c   Section        0  tm1650_2.o(i.TM1650_2_Write_Dat)
    i.USART2_IRQHandler                      0x08003640   Section        0  usart.o(i.USART2_IRQHandler)
    i.USART2_Init                            0x0800367c   Section        0  usart.o(i.USART2_Init)
    i.USART_Cmd                              0x08003728   Section        0  stm32f10x_usart.o(i.USART_Cmd)
    i.USART_ITConfig                         0x08003740   Section        0  stm32f10x_usart.o(i.USART_ITConfig)
    i.USART_Init                             0x0800378c   Section        0  stm32f10x_usart.o(i.USART_Init)
    i.UsageFault_Handler                     0x08003864   Section        0  stm32f10x_it.o(i.UsageFault_Handler)
    i.__scatterload_copy                     0x08003868   Section       14  handlers.o(i.__scatterload_copy)
    i.__scatterload_null                     0x08003876   Section        2  handlers.o(i.__scatterload_null)
    i.__scatterload_zeroinit                 0x08003878   Section       14  handlers.o(i.__scatterload_zeroinit)
    i.delay_ms                               0x08003886   Section        0  global.o(i.delay_ms)
    i.delay_us                               0x08003898   Section        0  global.o(i.delay_us)
    i.iap_load_app                           0x080038a4   Section        0  iap.o(i.iap_load_app)
    i.main                                   0x080038d0   Section        0  main.o(i.main)
    .data                                    0x20000000   Section        8  main.o(.data)
    rightCommond                             0x20000000   Data           8  main.o(.data)
    .data                                    0x20000008   Section       20  stm32f10x_rcc.o(.data)
    APBAHBPrescTable                         0x20000008   Data          16  stm32f10x_rcc.o(.data)
    ADCPrescTable                            0x20000018   Data           4  stm32f10x_rcc.o(.data)
    .data                                    0x2000001c   Section        4  usart.o(.data)
    .data                                    0x20000020   Section        4  iap.o(.data)
    .bss                                     0x20000024   Section     1024  flash.o(.bss)
    STACK                                    0x20000428   Section     1024  startup_stm32f10x_md.o(STACK)
    .ARM.__AT_0x20001000                     0x20001000   Section    15360  usart.o(.ARM.__AT_0x20001000)

    Global Symbols

    Symbol Name                              Value     Ov Type        Size  Object(Section)

    BuildAttributes$$THM_ISAv4$P$D$K$B$S$PE$A:L22UL41UL21$X:L11$S22US41US21$IEEE1$IW$USESV6$~STKCKD$USESV7$~SHL$OSPACE$EBA8$MICROLIB$REQ8$PRES8$EABIv2 0x00000000   Number         0  anon$$obj.o ABSOLUTE
    __ARM_use_no_argv                        0x00000000   Number         0  main.o ABSOLUTE
    __cpp_initialize__aeabi_                  - Undefined Weak Reference
    __cxa_finalize                            - Undefined Weak Reference
    __decompress                              - Undefined Weak Reference
    _clock_init                               - Undefined Weak Reference
    _microlib_exit                            - Undefined Weak Reference
    __Vectors_Size                           0x000000ec   Number         0  startup_stm32f10x_md.o ABSOLUTE
    __Vectors                                0x08002800   Data           4  startup_stm32f10x_md.o(RESET)
    __Vectors_End                            0x080028ec   Data           0  startup_stm32f10x_md.o(RESET)
    __main                                   0x080028ed   Thumb Code     0  entry.o(.ARM.Collect$$$$00000000)
    _main_stk                                0x080028ed   Thumb Code     0  entry2.o(.ARM.Collect$$$$00000001)
    _main_scatterload                        0x080028f1   Thumb Code     0  entry5.o(.ARM.Collect$$$$00000004)
    __main_after_scatterload                 0x080028f5   Thumb Code     0  entry5.o(.ARM.Collect$$$$00000004)
    _main_clock                              0x080028f5   Thumb Code     0  entry7b.o(.ARM.Collect$$$$00000008)
    _main_cpp_init                           0x080028f5   Thumb Code     0  entry8b.o(.ARM.Collect$$$$0000000A)
    _main_init                               0x080028f5   Thumb Code     0  entry9a.o(.ARM.Collect$$$$0000000B)
    __rt_final_cpp                           0x080028fd   Thumb Code     0  entry10a.o(.ARM.Collect$$$$0000000D)
    __rt_final_exit                          0x080028fd   Thumb Code     0  entry11a.o(.ARM.Collect$$$$0000000F)
    MSR_MSP                                  0x08002901   Thumb Code     6  sys.o(.emb_text)
    Reset_Handler                            0x08002909   Thumb Code     8  startup_stm32f10x_md.o(.text)
    ADC1_2_IRQHandler                        0x08002923   Thumb Code     0  startup_stm32f10x_md.o(.text)
    CAN1_RX1_IRQHandler                      0x08002923   Thumb Code     0  startup_stm32f10x_md.o(.text)
    CAN1_SCE_IRQHandler                      0x08002923   Thumb Code     0  startup_stm32f10x_md.o(.text)
    DMA1_Channel1_IRQHandler                 0x08002923   Thumb Code     0  startup_stm32f10x_md.o(.text)
    DMA1_Channel2_IRQHandler                 0x08002923   Thumb Code     0  startup_stm32f10x_md.o(.text)
    DMA1_Channel3_IRQHandler                 0x08002923   Thumb Code     0  startup_stm32f10x_md.o(.text)
    DMA1_Channel4_IRQHandler                 0x08002923   Thumb Code     0  startup_stm32f10x_md.o(.text)
    DMA1_Channel5_IRQHandler                 0x08002923   Thumb Code     0  startup_stm32f10x_md.o(.text)
    DMA1_Channel6_IRQHandler                 0x08002923   Thumb Code     0  startup_stm32f10x_md.o(.text)
    DMA1_Channel7_IRQHandler                 0x08002923   Thumb Code     0  startup_stm32f10x_md.o(.text)
    EXTI0_IRQHandler                         0x08002923   Thumb Code     0  startup_stm32f10x_md.o(.text)
    EXTI15_10_IRQHandler                     0x08002923   Thumb Code     0  startup_stm32f10x_md.o(.text)
    EXTI1_IRQHandler                         0x08002923   Thumb Code     0  startup_stm32f10x_md.o(.text)
    EXTI2_IRQHandler                         0x08002923   Thumb Code     0  startup_stm32f10x_md.o(.text)
    EXTI3_IRQHandler                         0x08002923   Thumb Code     0  startup_stm32f10x_md.o(.text)
    EXTI4_IRQHandler                         0x08002923   Thumb Code     0  startup_stm32f10x_md.o(.text)
    EXTI9_5_IRQHandler                       0x08002923   Thumb Code     0  startup_stm32f10x_md.o(.text)
    FLASH_IRQHandler                         0x08002923   Thumb Code     0  startup_stm32f10x_md.o(.text)
    I2C1_ER_IRQHandler                       0x08002923   Thumb Code     0  startup_stm32f10x_md.o(.text)
    I2C1_EV_IRQHandler                       0x08002923   Thumb Code     0  startup_stm32f10x_md.o(.text)
    I2C2_ER_IRQHandler                       0x08002923   Thumb Code     0  startup_stm32f10x_md.o(.text)
    I2C2_EV_IRQHandler                       0x08002923   Thumb Code     0  startup_stm32f10x_md.o(.text)
    PVD_IRQHandler                           0x08002923   Thumb Code     0  startup_stm32f10x_md.o(.text)
    RCC_IRQHandler                           0x08002923   Thumb Code     0  startup_stm32f10x_md.o(.text)
    RTCAlarm_IRQHandler                      0x08002923   Thumb Code     0  startup_stm32f10x_md.o(.text)
    RTC_IRQHandler                           0x08002923   Thumb Code     0  startup_stm32f10x_md.o(.text)
    SPI1_IRQHandler                          0x08002923   Thumb Code     0  startup_stm32f10x_md.o(.text)
    SPI2_IRQHandler                          0x08002923   Thumb Code     0  startup_stm32f10x_md.o(.text)
    TAMPER_IRQHandler                        0x08002923   Thumb Code     0  startup_stm32f10x_md.o(.text)
    TIM1_BRK_IRQHandler                      0x08002923   Thumb Code     0  startup_stm32f10x_md.o(.text)
    TIM1_CC_IRQHandler                       0x08002923   Thumb Code     0  startup_stm32f10x_md.o(.text)
    TIM1_TRG_COM_IRQHandler                  0x08002923   Thumb Code     0  startup_stm32f10x_md.o(.text)
    TIM1_UP_IRQHandler                       0x08002923   Thumb Code     0  startup_stm32f10x_md.o(.text)
    TIM2_IRQHandler                          0x08002923   Thumb Code     0  startup_stm32f10x_md.o(.text)
    TIM3_IRQHandler                          0x08002923   Thumb Code     0  startup_stm32f10x_md.o(.text)
    TIM4_IRQHandler                          0x08002923   Thumb Code     0  startup_stm32f10x_md.o(.text)
    USART1_IRQHandler                        0x08002923   Thumb Code     0  startup_stm32f10x_md.o(.text)
    USART3_IRQHandler                        0x08002923   Thumb Code     0  startup_stm32f10x_md.o(.text)
    USBWakeUp_IRQHandler                     0x08002923   Thumb Code     0  startup_stm32f10x_md.o(.text)
    USB_HP_CAN1_TX_IRQHandler                0x08002923   Thumb Code     0  startup_stm32f10x_md.o(.text)
    USB_LP_CAN1_RX0_IRQHandler               0x08002923   Thumb Code     0  startup_stm32f10x_md.o(.text)
    WWDG_IRQHandler                          0x08002923   Thumb Code     0  startup_stm32f10x_md.o(.text)
    strlen                                   0x0800292d   Thumb Code    14  strlen.o(.text)
    __scatterload                            0x0800293d   Thumb Code    28  init.o(.text)
    __scatterload_rt2                        0x0800293d   Thumb Code     0  init.o(.text)
    BusFault_Handler                         0x08002961   Thumb Code     4  stm32f10x_it.o(i.BusFault_Handler)
    CompareJumpCommond                       0x08002965   Thumb Code    50  main.o(i.CompareJumpCommond)
    DebugMon_Handler                         0x0800299d   Thumb Code     2  stm32f10x_it.o(i.DebugMon_Handler)
    DisplayTest                              0x0800299f   Thumb Code    82  display.o(i.DisplayTest)
    FLASH_ErasePage                          0x080029f1   Thumb Code    72  stm32f10x_flash.o(i.FLASH_ErasePage)
    FLASH_GetBank1Status                     0x08002a3d   Thumb Code    48  stm32f10x_flash.o(i.FLASH_GetBank1Status)
    FLASH_Lock                               0x08002a71   Thumb Code    14  stm32f10x_flash.o(i.FLASH_Lock)
    FLASH_ProgramHalfWord                    0x08002a85   Thumb Code    60  stm32f10x_flash.o(i.FLASH_ProgramHalfWord)
    FLASH_Read                               0x08002ac5   Thumb Code    34  flash.o(i.FLASH_Read)
    FLASH_ReadHalfWord                       0x08002ae7   Thumb Code     6  flash.o(i.FLASH_ReadHalfWord)
    FLASH_Unlock                             0x08002aed   Thumb Code    12  stm32f10x_flash.o(i.FLASH_Unlock)
    FLASH_WaitForLastOperation               0x08002b05   Thumb Code    38  stm32f10x_flash.o(i.FLASH_WaitForLastOperation)
    FLASH_Writ_NoCheck                       0x08002b2b   Thumb Code    38  flash.o(i.FLASH_Writ_NoCheck)
    FLASH_Write                              0x08002b51   Thumb Code   224  flash.o(i.FLASH_Write)
    GPIO_Init                                0x08002c39   Thumb Code   278  stm32f10x_gpio.o(i.GPIO_Init)
    GetNumFromChar                           0x08002d4f   Thumb Code   152  display.o(i.GetNumFromChar)
    HardFault_Handler                        0x08002de7   Thumb Code     4  stm32f10x_it.o(i.HardFault_Handler)
    MemManage_Handler                        0x08002deb   Thumb Code     4  stm32f10x_it.o(i.MemManage_Handler)
    NMI_Handler                              0x08002def   Thumb Code     2  stm32f10x_it.o(i.NMI_Handler)
    NVIC_Init                                0x08002df1   Thumb Code   100  misc.o(i.NVIC_Init)
    NVIC_PriorityGroupConfig                 0x08002e61   Thumb Code    10  misc.o(i.NVIC_PriorityGroupConfig)
    PendSV_Handler                           0x08002e75   Thumb Code     2  stm32f10x_it.o(i.PendSV_Handler)
    RCC_APB1PeriphClockCmd                   0x08002e79   Thumb Code    26  stm32f10x_rcc.o(i.RCC_APB1PeriphClockCmd)
    RCC_APB2PeriphClockCmd                   0x08002e99   Thumb Code    26  stm32f10x_rcc.o(i.RCC_APB2PeriphClockCmd)
    RCC_DeInit                               0x08002eb9   Thumb Code    64  stm32f10x_rcc.o(i.RCC_DeInit)
    RCC_GetClocksFreq                        0x08002f05   Thumb Code   192  stm32f10x_rcc.o(i.RCC_GetClocksFreq)
    RCC_GetFlagStatus                        0x08002fd9   Thumb Code    56  stm32f10x_rcc.o(i.RCC_GetFlagStatus)
    RCC_GetSYSCLKSource                      0x08003015   Thumb Code    10  stm32f10x_rcc.o(i.RCC_GetSYSCLKSource)
    RCC_HCLKConfig                           0x08003025   Thumb Code    18  stm32f10x_rcc.o(i.RCC_HCLKConfig)
    RCC_HSEConfig                            0x0800303d   Thumb Code    70  stm32f10x_rcc.o(i.RCC_HSEConfig)
    RCC_PCLK1Config                          0x08003089   Thumb Code    18  stm32f10x_rcc.o(i.RCC_PCLK1Config)
    RCC_PCLK2Config                          0x080030a1   Thumb Code    20  stm32f10x_rcc.o(i.RCC_PCLK2Config)
    RCC_PLLCmd                               0x080030b9   Thumb Code     6  stm32f10x_rcc.o(i.RCC_PLLCmd)
    RCC_PLLConfig                            0x080030c5   Thumb Code    24  stm32f10x_rcc.o(i.RCC_PLLConfig)
    RCC_SYSCLKConfig                         0x080030e1   Thumb Code    18  stm32f10x_rcc.o(i.RCC_SYSCLKConfig)
    RCC_UserInit                             0x080030f9   Thumb Code    90  main.o(i.RCC_UserInit)
    RCC_WaitForHSEStartUp                    0x08003153   Thumb Code    56  stm32f10x_rcc.o(i.RCC_WaitForHSEStartUp)
    SVC_Handler                              0x0800318b   Thumb Code     2  stm32f10x_it.o(i.SVC_Handler)
    SysTick_Handler                          0x08003275   Thumb Code     2  stm32f10x_it.o(i.SysTick_Handler)
    SystemInit                               0x08003279   Thumb Code    76  system_stm32f10x.o(i.SystemInit)
    TM1650_1_Dispiay_Digital                 0x080032d9   Thumb Code    42  tm1650_1.o(i.TM1650_1_Dispiay_Digital)
    TM1650_1_I2C_Ack                         0x08003305   Thumb Code    44  tm1650_1.o(i.TM1650_1_I2C_Ack)
    TM1650_1_I2C_Start                       0x08003339   Thumb Code    48  tm1650_1.o(i.TM1650_1_I2C_Start)
    TM1650_1_I2C_Stop                        0x08003371   Thumb Code    36  tm1650_1.o(i.TM1650_1_I2C_Stop)
    TM1650_1_I2C_Write_Byte                  0x0800339d   Thumb Code    96  tm1650_1.o(i.TM1650_1_I2C_Write_Byte)
    TM1650_1_Init                            0x08003405   Thumb Code    86  tm1650_1.o(i.TM1650_1_Init)
    TM1650_1_Write_Dat                       0x08003469   Thumb Code    36  tm1650_1.o(i.TM1650_1_Write_Dat)
    TM1650_2_Dispiay_Digital                 0x0800348d   Thumb Code    42  tm1650_2.o(i.TM1650_2_Dispiay_Digital)
    TM1650_2_I2C_Ack                         0x080034b9   Thumb Code    44  tm1650_2.o(i.TM1650_2_I2C_Ack)
    TM1650_2_I2C_Start                       0x080034ed   Thumb Code    48  tm1650_2.o(i.TM1650_2_I2C_Start)
    TM1650_2_I2C_Stop                        0x08003525   Thumb Code    36  tm1650_2.o(i.TM1650_2_I2C_Stop)
    TM1650_2_I2C_Write_Byte                  0x08003551   Thumb Code    96  tm1650_2.o(i.TM1650_2_I2C_Write_Byte)
    TM1650_2_Init                            0x080035b9   Thumb Code    86  tm1650_2.o(i.TM1650_2_Init)
    TM1650_2_Write_Dat                       0x0800361d   Thumb Code    36  tm1650_2.o(i.TM1650_2_Write_Dat)
    USART2_IRQHandler                        0x08003641   Thumb Code    48  usart.o(i.USART2_IRQHandler)
    USART2_Init                              0x0800367d   Thumb Code   164  usart.o(i.USART2_Init)
    USART_Cmd                                0x08003729   Thumb Code    24  stm32f10x_usart.o(i.USART_Cmd)
    USART_ITConfig                           0x08003741   Thumb Code    74  stm32f10x_usart.o(i.USART_ITConfig)
    USART_Init                               0x0800378d   Thumb Code   210  stm32f10x_usart.o(i.USART_Init)
    UsageFault_Handler                       0x08003865   Thumb Code     4  stm32f10x_it.o(i.UsageFault_Handler)
    __scatterload_copy                       0x08003869   Thumb Code    14  handlers.o(i.__scatterload_copy)
    __scatterload_null                       0x08003877   Thumb Code     2  handlers.o(i.__scatterload_null)
    __scatterload_zeroinit                   0x08003879   Thumb Code    14  handlers.o(i.__scatterload_zeroinit)
    delay_ms                                 0x08003887   Thumb Code    18  global.o(i.delay_ms)
    delay_us                                 0x08003899   Thumb Code    12  global.o(i.delay_us)
    iap_load_app                             0x080038a5   Thumb Code    36  iap.o(i.iap_load_app)
    main                                     0x080038d1   Thumb Code   158  main.o(i.main)
    Region$$Table$$Base                      0x0800398c   Number         0  anon$$obj.o(Region$$Table)
    Region$$Table$$Limit                     0x080039ac   Number         0  anon$$obj.o(Region$$Table)
    USART1_RX_STA                            0x2000001c   Data           2  usart.o(.data)
    USART1_RX_CNT                            0x2000001e   Data           2  usart.o(.data)
    jump2app                                 0x20000020   Data           4  iap.o(.data)
    FLASH_BUF                                0x20000024   Data        1024  flash.o(.bss)
    __initial_sp                             0x20000828   Data           0  startup_stm32f10x_md.o(STACK)
    USART1_RX_BUF                            0x20001000   Data       15360  usart.o(.ARM.__AT_0x20001000)



==============================================================================

Memory Map of the image

  Image Entry point : 0x080028ed

  Load Region LR_IROM1 (Base: 0x08002800, Size: 0x000011d0, Max: 0x0000d800, ABSOLUTE)

    Execution Region ER_IROM1 (Base: 0x08002800, Size: 0x000011ac, Max: 0x0000d800, ABSOLUTE)

    Base Addr    Size         Type   Attr      Idx    E Section Name        Object

    0x08002800   0x000000ec   Data   RO          262    RESET               startup_stm32f10x_md.o
    0x080028ec   0x00000000   Code   RO         3563  * .ARM.Collect$$$$00000000  mc_w.l(entry.o)
    0x080028ec   0x00000004   Code   RO         3568    .ARM.Collect$$$$00000001  mc_w.l(entry2.o)
    0x080028f0   0x00000004   Code   RO         3571    .ARM.Collect$$$$00000004  mc_w.l(entry5.o)
    0x080028f4   0x00000000   Code   RO         3573    .ARM.Collect$$$$00000008  mc_w.l(entry7b.o)
    0x080028f4   0x00000000   Code   RO         3575    .ARM.Collect$$$$0000000A  mc_w.l(entry8b.o)
    0x080028f4   0x00000008   Code   RO         3576    .ARM.Collect$$$$0000000B  mc_w.l(entry9a.o)
    0x080028fc   0x00000000   Code   RO         3578    .ARM.Collect$$$$0000000D  mc_w.l(entry10a.o)
    0x080028fc   0x00000000   Code   RO         3580    .ARM.Collect$$$$0000000F  mc_w.l(entry11a.o)
    0x080028fc   0x00000004   Code   RO         3569    .ARM.Collect$$$$00002712  mc_w.l(entry2.o)
    0x08002900   0x00000006   Code   RO         3464    .emb_text           sys.o
    0x08002906   0x00000002   PAD
    0x08002908   0x00000024   Code   RO          263    .text               startup_stm32f10x_md.o
    0x0800292c   0x0000000e   Code   RO         3566    .text               mc_w.l(strlen.o)
    0x0800293a   0x00000002   PAD
    0x0800293c   0x00000024   Code   RO         3582    .text               mc_w.l(init.o)
    0x08002960   0x00000004   Code   RO          152    i.BusFault_Handler  stm32f10x_it.o
    0x08002964   0x00000038   Code   RO            1    i.CompareJumpCommond  main.o
    0x0800299c   0x00000002   Code   RO          153    i.DebugMon_Handler  stm32f10x_it.o
    0x0800299e   0x00000052   Code   RO         3523    i.DisplayTest       display.o
    0x080029f0   0x0000004c   Code   RO         1149    i.FLASH_ErasePage   stm32f10x_flash.o
    0x08002a3c   0x00000034   Code   RO         1150    i.FLASH_GetBank1Status  stm32f10x_flash.o
    0x08002a70   0x00000014   Code   RO         1159    i.FLASH_Lock        stm32f10x_flash.o
    0x08002a84   0x00000040   Code   RO         1162    i.FLASH_ProgramHalfWord  stm32f10x_flash.o
    0x08002ac4   0x00000022   Code   RO         3431    i.FLASH_Read        flash.o
    0x08002ae6   0x00000006   Code   RO         3432    i.FLASH_ReadHalfWord  flash.o
    0x08002aec   0x00000018   Code   RO         1167    i.FLASH_Unlock      stm32f10x_flash.o
    0x08002b04   0x00000026   Code   RO         1171    i.FLASH_WaitForLastOperation  stm32f10x_flash.o
    0x08002b2a   0x00000026   Code   RO         3433    i.FLASH_Writ_NoCheck  flash.o
    0x08002b50   0x000000e8   Code   RO         3434    i.FLASH_Write       flash.o
    0x08002c38   0x00000116   Code   RO         1444    i.GPIO_Init         stm32f10x_gpio.o
    0x08002d4e   0x00000098   Code   RO         3524    i.GetNumFromChar    display.o
    0x08002de6   0x00000004   Code   RO          154    i.HardFault_Handler  stm32f10x_it.o
    0x08002dea   0x00000004   Code   RO          155    i.MemManage_Handler  stm32f10x_it.o
    0x08002dee   0x00000002   Code   RO          156    i.NMI_Handler       stm32f10x_it.o
    0x08002df0   0x00000070   Code   RO          267    i.NVIC_Init         misc.o
    0x08002e60   0x00000014   Code   RO          268    i.NVIC_PriorityGroupConfig  misc.o
    0x08002e74   0x00000002   Code   RO          157    i.PendSV_Handler    stm32f10x_it.o
    0x08002e76   0x00000002   PAD
    0x08002e78   0x00000020   Code   RO         1860    i.RCC_APB1PeriphClockCmd  stm32f10x_rcc.o
    0x08002e98   0x00000020   Code   RO         1862    i.RCC_APB2PeriphClockCmd  stm32f10x_rcc.o
    0x08002eb8   0x0000004c   Code   RO         1869    i.RCC_DeInit        stm32f10x_rcc.o
    0x08002f04   0x000000d4   Code   RO         1870    i.RCC_GetClocksFreq  stm32f10x_rcc.o
    0x08002fd8   0x0000003c   Code   RO         1871    i.RCC_GetFlagStatus  stm32f10x_rcc.o
    0x08003014   0x00000010   Code   RO         1873    i.RCC_GetSYSCLKSource  stm32f10x_rcc.o
    0x08003024   0x00000018   Code   RO         1874    i.RCC_HCLKConfig    stm32f10x_rcc.o
    0x0800303c   0x0000004c   Code   RO         1875    i.RCC_HSEConfig     stm32f10x_rcc.o
    0x08003088   0x00000018   Code   RO         1881    i.RCC_PCLK1Config   stm32f10x_rcc.o
    0x080030a0   0x00000018   Code   RO         1882    i.RCC_PCLK2Config   stm32f10x_rcc.o
    0x080030b8   0x0000000c   Code   RO         1883    i.RCC_PLLCmd        stm32f10x_rcc.o
    0x080030c4   0x0000001c   Code   RO         1884    i.RCC_PLLConfig     stm32f10x_rcc.o
    0x080030e0   0x00000018   Code   RO         1887    i.RCC_SYSCLKConfig  stm32f10x_rcc.o
    0x080030f8   0x0000005a   Code   RO            2    i.RCC_UserInit      main.o
    0x08003152   0x00000038   Code   RO         1889    i.RCC_WaitForHSEStartUp  stm32f10x_rcc.o
    0x0800318a   0x00000002   Code   RO          158    i.SVC_Handler       stm32f10x_it.o
    0x0800318c   0x00000008   Code   RO          215    i.SetSysClock       system_stm32f10x.o
    0x08003194   0x000000e0   Code   RO          216    i.SetSysClockTo72   system_stm32f10x.o
    0x08003274   0x00000002   Code   RO          159    i.SysTick_Handler   stm32f10x_it.o
    0x08003276   0x00000002   PAD
    0x08003278   0x00000060   Code   RO          218    i.SystemInit        system_stm32f10x.o
    0x080032d8   0x0000002a   Code   RO         3295    i.TM1650_1_Dispiay_Digital  tm1650_1.o
    0x08003302   0x00000002   PAD
    0x08003304   0x00000034   Code   RO         3297    i.TM1650_1_I2C_Ack  tm1650_1.o
    0x08003338   0x00000038   Code   RO         3299    i.TM1650_1_I2C_Start  tm1650_1.o
    0x08003370   0x0000002c   Code   RO         3300    i.TM1650_1_I2C_Stop  tm1650_1.o
    0x0800339c   0x00000068   Code   RO         3301    i.TM1650_1_I2C_Write_Byte  tm1650_1.o
    0x08003404   0x00000064   Code   RO         3302    i.TM1650_1_Init     tm1650_1.o
    0x08003468   0x00000024   Code   RO         3305    i.TM1650_1_Write_Dat  tm1650_1.o
    0x0800348c   0x0000002a   Code   RO         3373    i.TM1650_2_Dispiay_Digital  tm1650_2.o
    0x080034b6   0x00000002   PAD
    0x080034b8   0x00000034   Code   RO         3374    i.TM1650_2_I2C_Ack  tm1650_2.o
    0x080034ec   0x00000038   Code   RO         3375    i.TM1650_2_I2C_Start  tm1650_2.o
    0x08003524   0x0000002c   Code   RO         3376    i.TM1650_2_I2C_Stop  tm1650_2.o
    0x08003550   0x00000068   Code   RO         3377    i.TM1650_2_I2C_Write_Byte  tm1650_2.o
    0x080035b8   0x00000064   Code   RO         3378    i.TM1650_2_Init     tm1650_2.o
    0x0800361c   0x00000024   Code   RO         3380    i.TM1650_2_Write_Dat  tm1650_2.o
    0x08003640   0x0000003c   Code   RO         3492    i.USART2_IRQHandler  usart.o
    0x0800367c   0x000000ac   Code   RO         3493    i.USART2_Init       usart.o
    0x08003728   0x00000018   Code   RO         3030    i.USART_Cmd         stm32f10x_usart.o
    0x08003740   0x0000004a   Code   RO         3036    i.USART_ITConfig    stm32f10x_usart.o
    0x0800378a   0x00000002   PAD
    0x0800378c   0x000000d8   Code   RO         3037    i.USART_Init        stm32f10x_usart.o
    0x08003864   0x00000004   Code   RO          160    i.UsageFault_Handler  stm32f10x_it.o
    0x08003868   0x0000000e   Code   RO         3586    i.__scatterload_copy  mc_w.l(handlers.o)
    0x08003876   0x00000002   Code   RO         3587    i.__scatterload_null  mc_w.l(handlers.o)
    0x08003878   0x0000000e   Code   RO         3588    i.__scatterload_zeroinit  mc_w.l(handlers.o)
    0x08003886   0x00000012   Code   RO         3261    i.delay_ms          global.o
    0x08003898   0x0000000c   Code   RO         3262    i.delay_us          global.o
    0x080038a4   0x0000002c   Code   RO         3541    i.iap_load_app      iap.o
    0x080038d0   0x000000bc   Code   RO            3    i.main              main.o
    0x0800398c   0x00000020   Data   RO         3584    Region$$Table       anon$$obj.o


    Execution Region RW_IRAM1 (Base: 0x20000000, Size: 0x00004c00, Max: 0x00005000, ABSOLUTE)

    Base Addr    Size         Type   Attr      Idx    E Section Name        Object

    0x20000000   0x00000008   Data   RW            4    .data               main.o
    0x20000008   0x00000014   Data   RW         1890    .data               stm32f10x_rcc.o
    0x2000001c   0x00000004   Data   RW         3496    .data               usart.o
    0x20000020   0x00000004   Data   RW         3544    .data               iap.o
    0x20000024   0x00000400   Zero   RW         3435    .bss                flash.o
    0x20000424   0x00000004   PAD
    0x20000428   0x00000400   Zero   RW          260    STACK               startup_stm32f10x_md.o
    0x20000828   0x000007d8   PAD
    0x20001000   0x00003c00   Zero   RW         3495    .ARM.__AT_0x20001000  usart.o


==============================================================================

Image component sizes


      Code (inc. data)   RO Data    RW Data    ZI Data      Debug   Object Name

         0          0          0          0          0         32   core_cm3.o
       234         10          0          0          0       1263   display.o
       310          8          0          0       1024       3053   flash.o
        30          0          0          0          0       1804   global.o
        44          8          0          4          0        981   iap.o
       334         36          0          8          0     239265   main.o
       132         22          0          0          0     204851   misc.o
        36          8        236          0       1024        788   startup_stm32f10x_md.o
       274         30          0          0          0       3310   stm32f10x_flash.o
       278          0          0          0          0       1920   stm32f10x_gpio.o
        26          0          0          0          0       3634   stm32f10x_it.o
       696         92          0         20          0      10270   stm32f10x_rcc.o
       314          6          0          0          0       3602   stm32f10x_usart.o
         6          0          0          0          0        320   sys.o
       328         30          0          0          0       1761   system_stm32f10x.o
       434         46          0          0          0       3642   tm1650_1.o
       434         46          0          0          0       3642   tm1650_2.o
       232         20          0          4      15360       1782   usart.o

    ----------------------------------------------------------------------
      4154        362        268         36      19420     485920   Object Totals
         0          0         32          0          0          0   (incl. Generated)
        12          0          0          0       2012          0   (incl. Padding)

    ----------------------------------------------------------------------

      Code (inc. data)   RO Data    RW Data    ZI Data      Debug   Library Member Name

         0          0          0          0          0          0   entry.o
         0          0          0          0          0          0   entry10a.o
         0          0          0          0          0          0   entry11a.o
         8          4          0          0          0          0   entry2.o
         4          0          0          0          0          0   entry5.o
         0          0          0          0          0          0   entry7b.o
         0          0          0          0          0          0   entry8b.o
         8          4          0          0          0          0   entry9a.o
        30          0          0          0          0          0   handlers.o
        36          8          0          0          0         68   init.o
        14          0          0          0          0         68   strlen.o

    ----------------------------------------------------------------------
       102         16          0          0          0        136   Library Totals
         2          0          0          0          0          0   (incl. Padding)

    ----------------------------------------------------------------------

      Code (inc. data)   RO Data    RW Data    ZI Data      Debug   Library Name

       100         16          0          0          0        136   mc_w.l

    ----------------------------------------------------------------------
       102         16          0          0          0        136   Library Totals

    ----------------------------------------------------------------------

==============================================================================


      Code (inc. data)   RO Data    RW Data    ZI Data      Debug   

      4256        378        268         36      19420     482984   Grand Totals
      4256        378        268         36      19420     482984   ELF Image Totals
      4256        378        268         36          0          0   ROM Totals

==============================================================================

    Total RO  Size (Code + RO Data)                 4524 (   4.42kB)
    Total RW  Size (RW Data + ZI Data)             19456 (  19.00kB)
    Total ROM Size (Code + RO Data + RW Data)       4560 (   4.45kB)

==============================================================================

