Component: ARM Compiler 5.05 update 1 (build 106) Tool: armlink [4d0efa]

==============================================================================

Section Cross References

    main.o(i.RCC_UserInit) refers to stm32f10x_rcc.o(i.RCC_DeInit) for RCC_DeInit
    main.o(i.RCC_UserInit) refers to stm32f10x_rcc.o(i.RCC_HSEConfig) for RCC_HSEConfig
    main.o(i.RCC_UserInit) refers to stm32f10x_rcc.o(i.RCC_WaitForHSEStartUp) for RCC_WaitForHSEStartUp
    main.o(i.RCC_UserInit) refers to stm32f10x_rcc.o(i.RCC_HCLKConfig) for RCC_HCLKConfig
    main.o(i.RCC_UserInit) refers to stm32f10x_rcc.o(i.RCC_PCLK2Config) for RCC_PCLK2Config
    main.o(i.RCC_UserInit) refers to stm32f10x_rcc.o(i.RCC_PCLK1Config) for RCC_PCLK1Config
    main.o(i.RCC_UserInit) refers to stm32f10x_rcc.o(i.RCC_PLLConfig) for RCC_PLLConfig
    main.o(i.RCC_UserInit) refers to stm32f10x_rcc.o(i.RCC_PLLCmd) for RCC_PLLCmd
    main.o(i.RCC_UserInit) refers to stm32f10x_rcc.o(i.RCC_GetFlagStatus) for RCC_GetFlagStatus
    main.o(i.RCC_UserInit) refers to stm32f10x_rcc.o(i.RCC_SYSCLKConfig) for RCC_SYSCLKConfig
    main.o(i.RCC_UserInit) refers to stm32f10x_rcc.o(i.RCC_GetSYSCLKSource) for RCC_GetSYSCLKSource
    main.o(i.main) refers to main.o(i.RCC_UserInit) for RCC_UserInit
    main.o(i.main) refers to tm1650_1.o(i.TM1650_1_Init) for TM1650_1_Init
    main.o(i.main) refers to tm1650_2.o(i.TM1650_2_Init) for TM1650_2_Init
    main.o(i.main) refers to display.o(i.DisplayTest) for DisplayTest
    main.o(i.main) refers to global.o(i.delay_ms) for delay_ms
    system_stm32f10x.o(i.SetSysClock) refers to system_stm32f10x.o(i.SetSysClockTo72) for SetSysClockTo72
    system_stm32f10x.o(i.SystemCoreClockUpdate) refers to system_stm32f10x.o(.data) for SystemCoreClock
==============================================================================

Removing Unused input sections from the image.

    Removing system_stm32f10x.o(i.SystemCoreClockUpdate), (164 bytes).
    Removing system_stm32f10x.o(.data), (20 bytes).
    Removing core_cm3.o(.emb_text), (32 bytes).
    Removing startup_stm32f10x_md.o(HEAP), (512 bytes).
    Removing misc.o(i.NVIC_Init), (112 bytes).
    Removing misc.o(i.NVIC_PriorityGroupConfig), (20 bytes).
    Removing misc.o(i.NVIC_SetVectorTable), (20 bytes).
    Removing misc.o(i.NVIC_SystemLPConfig), (32 bytes).
    Removing misc.o(i.SysTick_CLKSourceConfig), (40 bytes).
    Removing stm32f10x_adc.o(i.ADC_AnalogWatchdogCmd), (20 bytes).
    Removing stm32f10x_adc.o(i.ADC_AnalogWatchdogSingleChannelConfig), (16 bytes).
    Removing stm32f10x_adc.o(i.ADC_AnalogWatchdogThresholdsConfig), (6 bytes).
    Removing stm32f10x_adc.o(i.ADC_AutoInjectedConvCmd), (22 bytes).
    Removing stm32f10x_adc.o(i.ADC_ClearFlag), (6 bytes).
    Removing stm32f10x_adc.o(i.ADC_ClearITPendingBit), (10 bytes).
    Removing stm32f10x_adc.o(i.ADC_Cmd), (22 bytes).
    Removing stm32f10x_adc.o(i.ADC_DMACmd), (22 bytes).
    Removing stm32f10x_adc.o(i.ADC_DeInit), (92 bytes).
==============================================================================

Image Symbol Table

    Local Symbols

    Symbol Name                              Value     Ov Type        Size  Object(Section)

    ../clib/microlib/init/entry.s            0x00000000   Number         0  entry11a.o ABSOLUTE
    ../clib/microlib/init/entry.s            0x00000000   Number         0  entry5.o ABSOLUTE
    ../clib/microlib/init/entry.s            0x00000000   Number         0  entry.o ABSOLUTE
    ../clib/microlib/init/entry.s            0x00000000   Number         0  entry11b.o ABSOLUTE
    ../clib/microlib/init/entry.s            0x00000000   Number         0  entry9a.o ABSOLUTE
    ../clib/microlib/init/entry.s            0x00000000   Number         0  entry10b.o ABSOLUTE
    ../clib/microlib/init/entry.s            0x00000000   Number         0  entry2.o ABSOLUTE
    ../clib/microlib/init/entry.s            0x00000000   Number         0  entry10a.o ABSOLUTE
    ../clib/microlib/init/entry.s            0x00000000   Number         0  entry9b.o ABSOLUTE
    ../clib/microlib/init/entry.s            0x00000000   Number         0  entry8b.o ABSOLUTE
    ../clib/microlib/init/entry.s            0x00000000   Number         0  entry8a.o ABSOLUTE
    ../clib/microlib/init/entry.s            0x00000000   Number         0  entry7b.o ABSOLUTE
    ../clib/microlib/init/entry.s            0x00000000   Number         0  entry7a.o ABSOLUTE
    ..\FML\display.c                         0x00000000   Number         0  display.o ABSOLUTE
    ..\FML\iap.c                             0x00000000   Number         0  iap.o ABSOLUTE
    ..\HAL\flash.c                           0x00000000   Number         0  flash.o ABSOLUTE
    ..\HAL\global.c                          0x00000000   Number         0  global.o ABSOLUTE
    ..\HAL\sys.c                             0x00000000   Number         0  sys.o ABSOLUTE
    ..\HAL\tm1650_1.c                        0x00000000   Number         0  tm1650_1.o ABSOLUTE
    ..\HAL\tm1650_2.c                        0x00000000   Number         0  tm1650_2.o ABSOLUTE
    ..\\HAL\\sys.c                           0x00000000   Number         0  sys.o ABSOLUTE
    ..\\core\\core_cm3.c                     0x00000000   Number         0  core_cm3.o ABSOLUTE
    ..\core\core_cm3.c                       0x00000000   Number         0  core_cm3.o ABSOLUTE
    ..\core\startup_stm32f10x_md.s           0x00000000   Number         0  startup_stm32f10x_md.o ABSOLUTE
    ..\stm32fx_fwlib\src\misc.c              0x00000000   Number         0  misc.o ABSOLUTE
    ..\stm32fx_fwlib\src\stm32f10x_adc.c     0x00000000   Number         0  stm32f10x_adc.o ABSOLUTE
    ..\stm32fx_fwlib\src\stm32f10x_bkp.c     0x00000000   Number         0  stm32f10x_bkp.o ABSOLUTE
    ..\stm32fx_fwlib\src\stm32f10x_can.c     0x00000000   Number         0  stm32f10x_can.o ABSOLUTE
    ..\stm32fx_fwlib\src\stm32f10x_cec.c     0x00000000   Number         0  stm32f10x_cec.o ABSOLUTE
    ..\stm32fx_fwlib\src\stm32f10x_crc.c     0x00000000   Number         0  stm32f10x_crc.o ABSOLUTE
    ..\stm32fx_fwlib\src\stm32f10x_dac.c     0x00000000   Number         0  stm32f10x_dac.o ABSOLUTE
    ..\stm32fx_fwlib\src\stm32f10x_dbgmcu.c  0x00000000   Number         0  stm32f10x_dbgmcu.o ABSOLUTE
    ..\stm32fx_fwlib\src\stm32f10x_dma.c     0x00000000   Number         0  stm32f10x_dma.o ABSOLUTE
    ..\stm32fx_fwlib\src\stm32f10x_exti.c    0x00000000   Number         0  stm32f10x_exti.o ABSOLUTE
    ..\stm32fx_fwlib\src\stm32f10x_flash.c   0x00000000   Number         0  stm32f10x_flash.o ABSOLUTE
    ..\stm32fx_fwlib\src\stm32f10x_fsmc.c    0x00000000   Number         0  stm32f10x_fsmc.o ABSOLUTE
    ..\stm32fx_fwlib\src\stm32f10x_gpio.c    0x00000000   Number         0  stm32f10x_gpio.o ABSOLUTE
    ..\stm32fx_fwlib\src\stm32f10x_i2c.c     0x00000000   Number         0  stm32f10x_i2c.o ABSOLUTE
    ..\stm32fx_fwlib\src\stm32f10x_iwdg.c    0x00000000   Number         0  stm32f10x_iwdg.o ABSOLUTE
    ..\stm32fx_fwlib\src\stm32f10x_pwr.c     0x00000000   Number         0  stm32f10x_pwr.o ABSOLUTE
    ..\stm32fx_fwlib\src\stm32f10x_rcc.c     0x00000000   Number         0  stm32f10x_rcc.o ABSOLUTE
    ..\stm32fx_fwlib\src\stm32f10x_rtc.c     0x00000000   Number         0  stm32f10x_rtc.o ABSOLUTE
    ..\stm32fx_fwlib\src\stm32f10x_sdio.c    0x00000000   Number         0  stm32f10x_sdio.o ABSOLUTE
    ..\stm32fx_fwlib\src\stm32f10x_spi.c     0x00000000   Number         0  stm32f10x_spi.o ABSOLUTE
    ..\stm32fx_fwlib\src\stm32f10x_tim.c     0x00000000   Number         0  stm32f10x_tim.o ABSOLUTE
    ..\stm32fx_fwlib\src\stm32f10x_usart.c   0x00000000   Number         0  stm32f10x_usart.o ABSOLUTE
    ..\stm32fx_fwlib\src\stm32f10x_wwdg.c    0x00000000   Number         0  stm32f10x_wwdg.o ABSOLUTE
    dc.s                                     0x00000000   Number         0  dc.o ABSOLUTE
    handlers.s                               0x00000000   Number         0  handlers.o ABSOLUTE
    init.s                                   0x00000000   Number         0  init.o ABSOLUTE
    main.c                                   0x00000000   Number         0  main.o ABSOLUTE
    stm32f10x_it.c                           0x00000000   Number         0  stm32f10x_it.o ABSOLUTE
    system_stm32f10x.c                       0x00000000   Number         0  system_stm32f10x.o ABSOLUTE
    RESET                                    0x08001800   Section      236  startup_stm32f10x_md.o(RESET)
    .ARM.Collect$$$$00000000                 0x080018ec   Section        0  entry.o(.ARM.Collect$$$$00000000)
    .ARM.Collect$$$$00000001                 0x080018ec   Section        4  entry2.o(.ARM.Collect$$$$00000001)
    .ARM.Collect$$$$00000004                 0x080018f0   Section        4  entry5.o(.ARM.Collect$$$$00000004)
    .ARM.Collect$$$$00000008                 0x080018f4   Section        0  entry7b.o(.ARM.Collect$$$$00000008)
    .ARM.Collect$$$$0000000A                 0x080018f4   Section        0  entry8b.o(.ARM.Collect$$$$0000000A)
    .ARM.Collect$$$$0000000B                 0x080018f4   Section        8  entry9a.o(.ARM.Collect$$$$0000000B)
    .ARM.Collect$$$$0000000D                 0x080018fc   Section        0  entry10a.o(.ARM.Collect$$$$0000000D)
    .ARM.Collect$$$$0000000F                 0x080018fc   Section        0  entry11a.o(.ARM.Collect$$$$0000000F)
    .ARM.Collect$$$$00002712                 0x080018fc   Section        4  entry2.o(.ARM.Collect$$$$00002712)
    __lit__00000000                          0x080018fc   Data           4  entry2.o(.ARM.Collect$$$$00002712)
    .text                                    0x08001900   Section       36  startup_stm32f10x_md.o(.text)
    .text                                    0x08001924   Section       36  init.o(.text)
    i.BusFault_Handler                       0x08001948   Section        0  stm32f10x_it.o(i.BusFault_Handler)
    i.DebugMon_Handler                       0x0800194c   Section        0  stm32f10x_it.o(i.DebugMon_Handler)
    i.DisplayTest                            0x0800194e   Section        0  display.o(i.DisplayTest)
    i.GPIO_Init                              0x080019a0   Section        0  stm32f10x_gpio.o(i.GPIO_Init)
    i.GetNumFromChar                         0x08001ab6   Section        0  display.o(i.GetNumFromChar)
    i.HardFault_Handler                      0x08001b4e   Section        0  stm32f10x_it.o(i.HardFault_Handler)
    i.MemManage_Handler                      0x08001b52   Section        0  stm32f10x_it.o(i.MemManage_Handler)
    i.NMI_Handler                            0x08001b56   Section        0  stm32f10x_it.o(i.NMI_Handler)
    i.PendSV_Handler                         0x08001b58   Section        0  stm32f10x_it.o(i.PendSV_Handler)
    i.RCC_APB2PeriphClockCmd                 0x08001b5c   Section        0  stm32f10x_rcc.o(i.RCC_APB2PeriphClockCmd)
    i.RCC_DeInit                             0x08001b7c   Section        0  stm32f10x_rcc.o(i.RCC_DeInit)
    i.RCC_GetFlagStatus                      0x08001bc8   Section        0  stm32f10x_rcc.o(i.RCC_GetFlagStatus)
    i.RCC_GetSYSCLKSource                    0x08001c04   Section        0  stm32f10x_rcc.o(i.RCC_GetSYSCLKSource)
    i.RCC_HCLKConfig                         0x08001c14   Section        0  stm32f10x_rcc.o(i.RCC_HCLKConfig)
    i.RCC_HSEConfig                          0x08001c2c   Section        0  stm32f10x_rcc.o(i.RCC_HSEConfig)
    i.RCC_PCLK1Config                        0x08001c78   Section        0  stm32f10x_rcc.o(i.RCC_PCLK1Config)
    i.RCC_PCLK2Config                        0x08001c90   Section        0  stm32f10x_rcc.o(i.RCC_PCLK2Config)
    i.RCC_PLLCmd                             0x08001ca8   Section        0  stm32f10x_rcc.o(i.RCC_PLLCmd)
    i.RCC_PLLConfig                          0x08001cb4   Section        0  stm32f10x_rcc.o(i.RCC_PLLConfig)
    i.RCC_SYSCLKConfig                       0x08001cd0   Section        0  stm32f10x_rcc.o(i.RCC_SYSCLKConfig)
    i.RCC_UserInit                           0x08001ce8   Section        0  main.o(i.RCC_UserInit)
    i.RCC_WaitForHSEStartUp                  0x08001d42   Section        0  stm32f10x_rcc.o(i.RCC_WaitForHSEStartUp)
    i.SVC_Handler                            0x08001d7a   Section        0  stm32f10x_it.o(i.SVC_Handler)
    i.SetSysClock                            0x08001d7c   Section        0  system_stm32f10x.o(i.SetSysClock)
    SetSysClock                              0x08001d7d   Thumb Code     8  system_stm32f10x.o(i.SetSysClock)
    i.SetSysClockTo72                        0x08001d84   Section        0  system_stm32f10x.o(i.SetSysClockTo72)
    SetSysClockTo72                          0x08001d85   Thumb Code   214  system_stm32f10x.o(i.SetSysClockTo72)
    i.SysTick_Handler                        0x08001e64   Section        0  stm32f10x_it.o(i.SysTick_Handler)
    i.SystemInit                             0x08001e68   Section        0  system_stm32f10x.o(i.SystemInit)
    i.TM1650_1_Dispiay_Digital               0x08001ec8   Section        0  tm1650_1.o(i.TM1650_1_Dispiay_Digital)
    i.TM1650_1_I2C_Ack                       0x08001ef4   Section        0  tm1650_1.o(i.TM1650_1_I2C_Ack)
    i.TM1650_1_I2C_Start                     0x08001f28   Section        0  tm1650_1.o(i.TM1650_1_I2C_Start)
    i.TM1650_1_I2C_Stop                      0x08001f60   Section        0  tm1650_1.o(i.TM1650_1_I2C_Stop)
    i.TM1650_1_I2C_Write_Byte                0x08001f8c   Section        0  tm1650_1.o(i.TM1650_1_I2C_Write_Byte)
    i.TM1650_1_Init                          0x08001ff4   Section        0  tm1650_1.o(i.TM1650_1_Init)
    i.TM1650_1_Write_Dat                     0x08002058   Section        0  tm1650_1.o(i.TM1650_1_Write_Dat)
    i.TM1650_2_Dispiay_Digital               0x0800207c   Section        0  tm1650_2.o(i.TM1650_2_Dispiay_Digital)
    i.TM1650_2_I2C_Ack                       0x080020a8   Section        0  tm1650_2.o(i.TM1650_2_I2C_Ack)
    i.TM1650_2_I2C_Start                     0x080020dc   Section        0  tm1650_2.o(i.TM1650_2_I2C_Start)
    i.TM1650_2_I2C_Stop                      0x08002114   Section        0  tm1650_2.o(i.TM1650_2_I2C_Stop)
    i.TM1650_2_I2C_Write_Byte                0x08002140   Section        0  tm1650_2.o(i.TM1650_2_I2C_Write_Byte)
    i.TM1650_2_Init                          0x080021a8   Section        0  tm1650_2.o(i.TM1650_2_Init)
    i.TM1650_2_Write_Dat                     0x0800220c   Section        0  tm1650_2.o(i.TM1650_2_Write_Dat)
    i.UsageFault_Handler                     0x08002230   Section        0  stm32f10x_it.o(i.UsageFault_Handler)
    i.__scatterload_copy                     0x08002234   Section       14  handlers.o(i.__scatterload_copy)
    i.__scatterload_null                     0x08002242   Section        2  handlers.o(i.__scatterload_null)
    i.__scatterload_zeroinit                 0x08002244   Section       14  handlers.o(i.__scatterload_zeroinit)
    i.delay_ms                               0x08002252   Section        0  global.o(i.delay_ms)
    i.delay_us                               0x08002264   Section        0  global.o(i.delay_us)
    i.main                                   0x08002270   Section        0  main.o(i.main)
    STACK                                    0x20000000   Section     1024  startup_stm32f10x_md.o(STACK)

    Global Symbols

    Symbol Name                              Value     Ov Type        Size  Object(Section)

    BuildAttributes$$THM_ISAv4$P$D$K$B$S$PE$A:L22UL41UL21$X:L11$S22US41US21$IEEE1$IW$USESV6$~STKCKD$USESV7$~SHL$OSPACE$EBA8$MICROLIB$REQ8$PRES8$EABIv2 0x00000000   Number         0  anon$$obj.o ABSOLUTE
    __ARM_use_no_argv                        0x00000000   Number         0  main.o ABSOLUTE
    __cpp_initialize__aeabi_                  - Undefined Weak Reference
    __cxa_finalize                            - Undefined Weak Reference
    __decompress                              - Undefined Weak Reference
    _clock_init                               - Undefined Weak Reference
    _microlib_exit                            - Undefined Weak Reference
    __Vectors_Size                           0x000000ec   Number         0  startup_stm32f10x_md.o ABSOLUTE
    __Vectors                                0x08001800   Data           4  startup_stm32f10x_md.o(RESET)
    __Vectors_End                            0x080018ec   Data           0  startup_stm32f10x_md.o(RESET)
    __main                                   0x080018ed   Thumb Code     0  entry.o(.ARM.Collect$$$$00000000)
    _main_stk                                0x080018ed   Thumb Code     0  entry2.o(.ARM.Collect$$$$00000001)
    _main_scatterload                        0x080018f1   Thumb Code     0  entry5.o(.ARM.Collect$$$$00000004)
    __main_after_scatterload                 0x080018f5   Thumb Code     0  entry5.o(.ARM.Collect$$$$00000004)
    _main_clock                              0x080018f5   Thumb Code     0  entry7b.o(.ARM.Collect$$$$00000008)
    _main_cpp_init                           0x080018f5   Thumb Code     0  entry8b.o(.ARM.Collect$$$$0000000A)
    _main_init                               0x080018f5   Thumb Code     0  entry9a.o(.ARM.Collect$$$$0000000B)
    __rt_final_cpp                           0x080018fd   Thumb Code     0  entry10a.o(.ARM.Collect$$$$0000000D)
    __rt_final_exit                          0x080018fd   Thumb Code     0  entry11a.o(.ARM.Collect$$$$0000000F)
    Reset_Handler                            0x08001901   Thumb Code     8  startup_stm32f10x_md.o(.text)
    ADC1_2_IRQHandler                        0x0800191b   Thumb Code     0  startup_stm32f10x_md.o(.text)
    CAN1_RX1_IRQHandler                      0x0800191b   Thumb Code     0  startup_stm32f10x_md.o(.text)
    CAN1_SCE_IRQHandler                      0x0800191b   Thumb Code     0  startup_stm32f10x_md.o(.text)
    DMA1_Channel1_IRQHandler                 0x0800191b   Thumb Code     0  startup_stm32f10x_md.o(.text)
    DMA1_Channel2_IRQHandler                 0x0800191b   Thumb Code     0  startup_stm32f10x_md.o(.text)
    DMA1_Channel3_IRQHandler                 0x0800191b   Thumb Code     0  startup_stm32f10x_md.o(.text)
    DMA1_Channel4_IRQHandler                 0x0800191b   Thumb Code     0  startup_stm32f10x_md.o(.text)
    DMA1_Channel5_IRQHandler                 0x0800191b   Thumb Code     0  startup_stm32f10x_md.o(.text)
    DMA1_Channel6_IRQHandler                 0x0800191b   Thumb Code     0  startup_stm32f10x_md.o(.text)
    DMA1_Channel7_IRQHandler                 0x0800191b   Thumb Code     0  startup_stm32f10x_md.o(.text)
    EXTI0_IRQHandler                         0x0800191b   Thumb Code     0  startup_stm32f10x_md.o(.text)
    EXTI15_10_IRQHandler                     0x0800191b   Thumb Code     0  startup_stm32f10x_md.o(.text)
    EXTI1_IRQHandler                         0x0800191b   Thumb Code     0  startup_stm32f10x_md.o(.text)
    EXTI2_IRQHandler                         0x0800191b   Thumb Code     0  startup_stm32f10x_md.o(.text)
    EXTI3_IRQHandler                         0x0800191b   Thumb Code     0  startup_stm32f10x_md.o(.text)
    EXTI4_IRQHandler                         0x0800191b   Thumb Code     0  startup_stm32f10x_md.o(.text)
    EXTI9_5_IRQHandler                       0x0800191b   Thumb Code     0  startup_stm32f10x_md.o(.text)
    FLASH_IRQHandler                         0x0800191b   Thumb Code     0  startup_stm32f10x_md.o(.text)
    I2C1_ER_IRQHandler                       0x0800191b   Thumb Code     0  startup_stm32f10x_md.o(.text)
    I2C1_EV_IRQHandler                       0x0800191b   Thumb Code     0  startup_stm32f10x_md.o(.text)
    I2C2_ER_IRQHandler                       0x0800191b   Thumb Code     0  startup_stm32f10x_md.o(.text)
    I2C2_EV_IRQHandler                       0x0800191b   Thumb Code     0  startup_stm32f10x_md.o(.text)
    PVD_IRQHandler                           0x0800191b   Thumb Code     0  startup_stm32f10x_md.o(.text)
    RCC_IRQHandler                           0x0800191b   Thumb Code     0  startup_stm32f10x_md.o(.text)
    RTCAlarm_IRQHandler                      0x0800191b   Thumb Code     0  startup_stm32f10x_md.o(.text)
    RTC_IRQHandler                           0x0800191b   Thumb Code     0  startup_stm32f10x_md.o(.text)
    SPI1_IRQHandler                          0x0800191b   Thumb Code     0  startup_stm32f10x_md.o(.text)
    SPI2_IRQHandler                          0x0800191b   Thumb Code     0  startup_stm32f10x_md.o(.text)
    TAMPER_IRQHandler                        0x0800191b   Thumb Code     0  startup_stm32f10x_md.o(.text)
    TIM1_BRK_IRQHandler                      0x0800191b   Thumb Code     0  startup_stm32f10x_md.o(.text)
    TIM1_CC_IRQHandler                       0x0800191b   Thumb Code     0  startup_stm32f10x_md.o(.text)
    TIM1_TRG_COM_IRQHandler                  0x0800191b   Thumb Code     0  startup_stm32f10x_md.o(.text)
    TIM1_UP_IRQHandler                       0x0800191b   Thumb Code     0  startup_stm32f10x_md.o(.text)
    TIM2_IRQHandler                          0x0800191b   Thumb Code     0  startup_stm32f10x_md.o(.text)
    TIM3_IRQHandler                          0x0800191b   Thumb Code     0  startup_stm32f10x_md.o(.text)
    TIM4_IRQHandler                          0x0800191b   Thumb Code     0  startup_stm32f10x_md.o(.text)
    USART1_IRQHandler                        0x0800191b   Thumb Code     0  startup_stm32f10x_md.o(.text)
    USART2_IRQHandler                        0x0800191b   Thumb Code     0  startup_stm32f10x_md.o(.text)
    USART3_IRQHandler                        0x0800191b   Thumb Code     0  startup_stm32f10x_md.o(.text)
    USBWakeUp_IRQHandler                     0x0800191b   Thumb Code     0  startup_stm32f10x_md.o(.text)
    USB_HP_CAN1_TX_IRQHandler                0x0800191b   Thumb Code     0  startup_stm32f10x_md.o(.text)
    USB_LP_CAN1_RX0_IRQHandler               0x0800191b   Thumb Code     0  startup_stm32f10x_md.o(.text)
    WWDG_IRQHandler                          0x0800191b   Thumb Code     0  startup_stm32f10x_md.o(.text)
    __scatterload                            0x08001925   Thumb Code    28  init.o(.text)
    __scatterload_rt2                        0x08001925   Thumb Code     0  init.o(.text)
    BusFault_Handler                         0x08001949   Thumb Code     4  stm32f10x_it.o(i.BusFault_Handler)
    DebugMon_Handler                         0x0800194d   Thumb Code     2  stm32f10x_it.o(i.DebugMon_Handler)
    DisplayTest                              0x0800194f   Thumb Code    82  display.o(i.DisplayTest)
    GPIO_Init                                0x080019a1   Thumb Code   278  stm32f10x_gpio.o(i.GPIO_Init)
    GetNumFromChar                           0x08001ab7   Thumb Code   152  display.o(i.GetNumFromChar)
    HardFault_Handler                        0x08001b4f   Thumb Code     4  stm32f10x_it.o(i.HardFault_Handler)
    MemManage_Handler                        0x08001b53   Thumb Code     4  stm32f10x_it.o(i.MemManage_Handler)
    NMI_Handler                              0x08001b57   Thumb Code     2  stm32f10x_it.o(i.NMI_Handler)
    PendSV_Handler                           0x08001b59   Thumb Code     2  stm32f10x_it.o(i.PendSV_Handler)
    RCC_APB2PeriphClockCmd                   0x08001b5d   Thumb Code    26  stm32f10x_rcc.o(i.RCC_APB2PeriphClockCmd)
    RCC_DeInit                               0x08001b7d   Thumb Code    64  stm32f10x_rcc.o(i.RCC_DeInit)
    RCC_GetFlagStatus                        0x08001bc9   Thumb Code    56  stm32f10x_rcc.o(i.RCC_GetFlagStatus)
    RCC_GetSYSCLKSource                      0x08001c05   Thumb Code    10  stm32f10x_rcc.o(i.RCC_GetSYSCLKSource)
    RCC_HCLKConfig                           0x08001c15   Thumb Code    18  stm32f10x_rcc.o(i.RCC_HCLKConfig)
    RCC_HSEConfig                            0x08001c2d   Thumb Code    70  stm32f10x_rcc.o(i.RCC_HSEConfig)
    RCC_PCLK1Config                          0x08001c79   Thumb Code    18  stm32f10x_rcc.o(i.RCC_PCLK1Config)
    RCC_PCLK2Config                          0x08001c91   Thumb Code    20  stm32f10x_rcc.o(i.RCC_PCLK2Config)
    RCC_PLLCmd                               0x08001ca9   Thumb Code     6  stm32f10x_rcc.o(i.RCC_PLLCmd)
    RCC_PLLConfig                            0x08001cb5   Thumb Code    24  stm32f10x_rcc.o(i.RCC_PLLConfig)
    RCC_SYSCLKConfig                         0x08001cd1   Thumb Code    18  stm32f10x_rcc.o(i.RCC_SYSCLKConfig)
    RCC_UserInit                             0x08001ce9   Thumb Code    90  main.o(i.RCC_UserInit)
    RCC_WaitForHSEStartUp                    0x08001d43   Thumb Code    56  stm32f10x_rcc.o(i.RCC_WaitForHSEStartUp)
    SVC_Handler                              0x08001d7b   Thumb Code     2  stm32f10x_it.o(i.SVC_Handler)
    SysTick_Handler                          0x08001e65   Thumb Code     2  stm32f10x_it.o(i.SysTick_Handler)
    SystemInit                               0x08001e69   Thumb Code    76  system_stm32f10x.o(i.SystemInit)
    TM1650_1_Dispiay_Digital                 0x08001ec9   Thumb Code    42  tm1650_1.o(i.TM1650_1_Dispiay_Digital)
    TM1650_1_I2C_Ack                         0x08001ef5   Thumb Code    44  tm1650_1.o(i.TM1650_1_I2C_Ack)
    TM1650_1_I2C_Start                       0x08001f29   Thumb Code    48  tm1650_1.o(i.TM1650_1_I2C_Start)
    TM1650_1_I2C_Stop                        0x08001f61   Thumb Code    36  tm1650_1.o(i.TM1650_1_I2C_Stop)
    TM1650_1_I2C_Write_Byte                  0x08001f8d   Thumb Code    96  tm1650_1.o(i.TM1650_1_I2C_Write_Byte)
    TM1650_1_Init                            0x08001ff5   Thumb Code    86  tm1650_1.o(i.TM1650_1_Init)
    TM1650_1_Write_Dat                       0x08002059   Thumb Code    36  tm1650_1.o(i.TM1650_1_Write_Dat)
    TM1650_2_Dispiay_Digital                 0x0800207d   Thumb Code    42  tm1650_2.o(i.TM1650_2_Dispiay_Digital)
    TM1650_2_I2C_Ack                         0x080020a9   Thumb Code    44  tm1650_2.o(i.TM1650_2_I2C_Ack)
    TM1650_2_I2C_Start                       0x080020dd   Thumb Code    48  tm1650_2.o(i.TM1650_2_I2C_Start)
    TM1650_2_I2C_Stop                        0x08002115   Thumb Code    36  tm1650_2.o(i.TM1650_2_I2C_Stop)
    TM1650_2_I2C_Write_Byte                  0x08002141   Thumb Code    96  tm1650_2.o(i.TM1650_2_I2C_Write_Byte)
    TM1650_2_Init                            0x080021a9   Thumb Code    86  tm1650_2.o(i.TM1650_2_Init)
    TM1650_2_Write_Dat                       0x0800220d   Thumb Code    36  tm1650_2.o(i.TM1650_2_Write_Dat)
    UsageFault_Handler                       0x08002231   Thumb Code     4  stm32f10x_it.o(i.UsageFault_Handler)
    __scatterload_copy                       0x08002235   Thumb Code    14  handlers.o(i.__scatterload_copy)
    __scatterload_null                       0x08002243   Thumb Code     2  handlers.o(i.__scatterload_null)
    __scatterload_zeroinit                   0x08002245   Thumb Code    14  handlers.o(i.__scatterload_zeroinit)
    delay_ms                                 0x08002253   Thumb Code    18  global.o(i.delay_ms)
    delay_us                                 0x08002265   Thumb Code    12  global.o(i.delay_us)
    main                                     0x08002271   Thumb Code    44  main.o(i.main)
    Region$$Table$$Base                      0x080022ac   Number         0  anon$$obj.o(Region$$Table)
    Region$$Table$$Limit                     0x080022bc   Number         0  anon$$obj.o(Region$$Table)
    __initial_sp                             0x20000400   Data           0  startup_stm32f10x_md.o(STACK)



==============================================================================

Memory Map of the image

  Image Entry point : 0x080018ed

  Load Region LR_IROM1 (Base: 0x08001800, Size: 0x00000abc, Max: 0x0000f8f8, ABSOLUTE)

    Execution Region ER_IROM1 (Base: 0x08001800, Size: 0x00000abc, Max: 0x0000f8f8, ABSOLUTE)

    Base Addr    Size         Type   Attr      Idx    E Section Name        Object

    0x08001800   0x000000ec   Data   RO          244    RESET               startup_stm32f10x_md.o
    0x080018ec   0x00000000   Code   RO         3510  * .ARM.Collect$$$$00000000  mc_w.l(entry.o)
    0x080018ec   0x00000004   Code   RO         3513    .ARM.Collect$$$$00000001  mc_w.l(entry2.o)
    0x080018f0   0x00000004   Code   RO         3516    .ARM.Collect$$$$00000004  mc_w.l(entry5.o)
    0x080018f4   0x00000000   Code   RO         3518    .ARM.Collect$$$$00000008  mc_w.l(entry7b.o)
    0x080018f4   0x00000000   Code   RO         3520    .ARM.Collect$$$$0000000A  mc_w.l(entry8b.o)
    0x080018f4   0x00000008   Code   RO         3521    .ARM.Collect$$$$0000000B  mc_w.l(entry9a.o)
    0x080018fc   0x00000000   Code   RO         3523    .ARM.Collect$$$$0000000D  mc_w.l(entry10a.o)
    0x080018fc   0x00000000   Code   RO         3525    .ARM.Collect$$$$0000000F  mc_w.l(entry11a.o)
    0x080018fc   0x00000004   Code   RO         3514    .ARM.Collect$$$$00002712  mc_w.l(entry2.o)
    0x08001900   0x00000024   Code   RO          245    .text               startup_stm32f10x_md.o
    0x08001924   0x00000024   Code   RO         3527    .text               mc_w.l(init.o)
    0x08001948   0x00000004   Code   RO          134    i.BusFault_Handler  stm32f10x_it.o
    0x0800194c   0x00000002   Code   RO          135    i.DebugMon_Handler  stm32f10x_it.o
    0x0800194e   0x00000052   Code   RO         3470    i.DisplayTest       display.o
    0x080019a0   0x00000116   Code   RO         1426    i.GPIO_Init         stm32f10x_gpio.o
    0x08001ab6   0x00000098   Code   RO         3471    i.GetNumFromChar    display.o
    0x08001b4e   0x00000004   Code   RO          136    i.HardFault_Handler  stm32f10x_it.o
    0x08001b52   0x00000004   Code   RO          137    i.MemManage_Handler  stm32f10x_it.o
    0x08001b56   0x00000002   Code   RO          138    i.NMI_Handler       stm32f10x_it.o
    0x08001b58   0x00000002   Code   RO          139    i.PendSV_Handler    stm32f10x_it.o
    0x08001b5a   0x00000002   PAD
    0x08001b5c   0x00000020   Code   RO         1844    i.RCC_APB2PeriphClockCmd  stm32f10x_rcc.o
    0x08001b7c   0x0000004c   Code   RO         1851    i.RCC_DeInit        stm32f10x_rcc.o
    0x08001bc8   0x0000003c   Code   RO         1853    i.RCC_GetFlagStatus  stm32f10x_rcc.o
    0x08001c04   0x00000010   Code   RO         1855    i.RCC_GetSYSCLKSource  stm32f10x_rcc.o
    0x08001c14   0x00000018   Code   RO         1856    i.RCC_HCLKConfig    stm32f10x_rcc.o
    0x08001c2c   0x0000004c   Code   RO         1857    i.RCC_HSEConfig     stm32f10x_rcc.o
    0x08001c78   0x00000018   Code   RO         1863    i.RCC_PCLK1Config   stm32f10x_rcc.o
    0x08001c90   0x00000018   Code   RO         1864    i.RCC_PCLK2Config   stm32f10x_rcc.o
    0x08001ca8   0x0000000c   Code   RO         1865    i.RCC_PLLCmd        stm32f10x_rcc.o
    0x08001cb4   0x0000001c   Code   RO         1866    i.RCC_PLLConfig     stm32f10x_rcc.o
    0x08001cd0   0x00000018   Code   RO         1869    i.RCC_SYSCLKConfig  stm32f10x_rcc.o
    0x08001ce8   0x0000005a   Code   RO            1    i.RCC_UserInit      main.o
    0x08001d42   0x00000038   Code   RO         1871    i.RCC_WaitForHSEStartUp  stm32f10x_rcc.o
    0x08001d7a   0x00000002   Code   RO          140    i.SVC_Handler       stm32f10x_it.o
    0x08001d7c   0x00000008   Code   RO          197    i.SetSysClock       system_stm32f10x.o
    0x08001d84   0x000000e0   Code   RO          198    i.SetSysClockTo72   system_stm32f10x.o
    0x08001e64   0x00000002   Code   RO          141    i.SysTick_Handler   stm32f10x_it.o
    0x08001e66   0x00000002   PAD
    0x08001e68   0x00000060   Code   RO          200    i.SystemInit        system_stm32f10x.o
    0x08001ec8   0x0000002a   Code   RO         3273    i.TM1650_1_Dispiay_Digital  tm1650_1.o
    0x08001ef2   0x00000002   PAD
    0x08001ef4   0x00000034   Code   RO         3275    i.TM1650_1_I2C_Ack  tm1650_1.o
    0x08001f28   0x00000038   Code   RO         3277    i.TM1650_1_I2C_Start  tm1650_1.o
    0x08001f60   0x0000002c   Code   RO         3278    i.TM1650_1_I2C_Stop  tm1650_1.o
    0x08001f8c   0x00000068   Code   RO         3279    i.TM1650_1_I2C_Write_Byte  tm1650_1.o
    0x08001ff4   0x00000064   Code   RO         3280    i.TM1650_1_Init     tm1650_1.o
    0x08002058   0x00000024   Code   RO         3283    i.TM1650_1_Write_Dat  tm1650_1.o
    0x0800207c   0x0000002a   Code   RO         3351    i.TM1650_2_Dispiay_Digital  tm1650_2.o
    0x080020a6   0x00000002   PAD
    0x080020a8   0x00000034   Code   RO         3352    i.TM1650_2_I2C_Ack  tm1650_2.o
    0x080020dc   0x00000038   Code   RO         3353    i.TM1650_2_I2C_Start  tm1650_2.o
    0x08002114   0x0000002c   Code   RO         3354    i.TM1650_2_I2C_Stop  tm1650_2.o
    0x08002140   0x00000068   Code   RO         3355    i.TM1650_2_I2C_Write_Byte  tm1650_2.o
    0x080021a8   0x00000064   Code   RO         3356    i.TM1650_2_Init     tm1650_2.o
    0x0800220c   0x00000024   Code   RO         3358    i.TM1650_2_Write_Dat  tm1650_2.o
    0x08002230   0x00000004   Code   RO          142    i.UsageFault_Handler  stm32f10x_it.o
    0x08002234   0x0000000e   Code   RO         3531    i.__scatterload_copy  mc_w.l(handlers.o)
    0x08002242   0x00000002   Code   RO         3532    i.__scatterload_null  mc_w.l(handlers.o)
    0x08002244   0x0000000e   Code   RO         3533    i.__scatterload_zeroinit  mc_w.l(handlers.o)
    0x08002252   0x00000012   Code   RO         3243    i.delay_ms          global.o
    0x08002264   0x0000000c   Code   RO         3244    i.delay_us          global.o
    0x08002270   0x0000003c   Code   RO            2    i.main              main.o
    0x080022ac   0x00000010   Data   RO         3529    Region$$Table       anon$$obj.o


    Execution Region RW_IRAM1 (Base: 0x20000000, Size: 0x00000400, Max: 0x00005000, ABSOLUTE)

    Base Addr    Size         Type   Attr      Idx    E Section Name        Object

    0x20000000   0x00000400   Zero   RW          242    STACK               startup_stm32f10x_md.o


==============================================================================

Image component sizes


      Code (inc. data)   RO Data    RW Data    ZI Data      Debug   Object Name

         0          0          0          0          0         32   core_cm3.o
       234         10          0          0          0       1239   display.o
        30          0          0          0          0       1768   global.o
       150         16          0          0          0      23356   main.o
         0          0          0          0          0     201668   misc.o
        36          8        236          0       1024        776   startup_stm32f10x_md.o
       278          0          0          0          0       1896   stm32f10x_gpio.o
        26          0          0          0          0       3526   stm32f10x_it.o
       452         66          0          0          0       8589   stm32f10x_rcc.o
       328         30          0          0          0       1713   system_stm32f10x.o
       434         46          0          0          0       3558   tm1650_1.o
       434         46          0          0          0       3558   tm1650_2.o

    ----------------------------------------------------------------------
      2410        222        252          0       1024     251679   Object Totals
         0          0         16          0          0          0   (incl. Generated)
         8          0          0          0          0          0   (incl. Padding)

    ----------------------------------------------------------------------

      Code (inc. data)   RO Data    RW Data    ZI Data      Debug   Library Member Name

         0          0          0          0          0          0   entry.o
         0          0          0          0          0          0   entry10a.o
         0          0          0          0          0          0   entry11a.o
         8          4          0          0          0          0   entry2.o
         4          0          0          0          0          0   entry5.o
         0          0          0          0          0          0   entry7b.o
         0          0          0          0          0          0   entry8b.o
         8          4          0          0          0          0   entry9a.o
        30          0          0          0          0          0   handlers.o
        36          8          0          0          0         68   init.o

    ----------------------------------------------------------------------
        86         16          0          0          0         68   Library Totals
         0          0          0          0          0          0   (incl. Padding)

    ----------------------------------------------------------------------

      Code (inc. data)   RO Data    RW Data    ZI Data      Debug   Library Name

        86         16          0          0          0         68   mc_w.l

    ----------------------------------------------------------------------
        86         16          0          0          0         68   Library Totals

    ----------------------------------------------------------------------

==============================================================================


      Code (inc. data)   RO Data    RW Data    ZI Data      Debug   

      2496        238        252          0       1024     249819   Grand Totals
      2496        238        252          0       1024     249819   ELF Image Totals
      2496        238        252          0          0          0   ROM Totals

==============================================================================

    Total RO  Size (Code + RO Data)                 2748 (   2.68kB)
    Total RW  Size (RW Data + ZI Data)              1024 (   1.00kB)
    Total ROM Size (Code + RO Data + RW Data)       2748 (   2.68kB)

==============================================================================

