:020000040800F2
:102800002808002009290008EF2D0008E72D0008FE
:10281000EB2D000861290008653800080000000061
:102820000000000000000000000000008B310008E4
:102830009D29000800000000752E00087532000870
:102840002329000823290008232900082329000838
:102850002329000823290008232900082329000828
:102860002329000823290008232900082329000818
:102870002329000823290008232900082329000808
:1028800023290008232900082329000823290008F8
:1028900023290008232900082329000823290008E8
:1028A00023290008232900082329000823290008D8
:1028B00023290008232900082329000823290008C8
:1028C00023290008232900082329000823290008B8
:1028D000232900082329000841360008232900087D
:1028E000232900082329000823290008DFF80CD039
:1028F00000F024F800480047D138000828080020DC
:1029000080F3088870470000064880470648004763
:10291000FEE7FEE7FEE7FEE7FEE7FEE7FEE7FEE78F
:10292000FEE7FEE779320008ED280008421C10F8A7
:10293000011B0029FBD1801A70470000064C074D8F
:1029400006E0E06840F0010394E80700984710347F
:10295000AC42F6D3FFF7CEFF8C390008AC39000843
:1029600000BFFEE770B505460C4600260A48FFF793
:10297000DDFFA04201D2012070BD002007E0064922
:10298000095C2A5C914200D00126411CC8B2A042D9
:10299000F5DB3046F0E700000000002070477CB512
:1029A00005462E46002004E000210DF80010411CD1
:1029B000C8B20628F8DB002407E0304600F0C7F96B
:1029C0000DF80400761C601CC4B2062CF5DB9DF8E3
:1029D00002209DF801109DF8000000F07DFC9DF89C
:1029E00005209DF804109DF8030000F04FFD7CBD0C
:1029F00030B5044604254FF4302000F083F8054636
:102A0000042D17D10C48006940F002000A49086102
:102A100008464461006940F0400008614FF43020EE
:102A200000F070F805460448006941F6FD71084061
:102A300001490861284630BD0020024004200B49AE
:102A4000C96801F0010109B101200EE00749C96818
:102A500001F0040109B1022007E00449C96801F04E
:102A6000100109B1032000E004207047002002405B
:102A70000348006940F08000014908617047000088
:102A80000020024070B504460D460426F00200F016
:102A900039F80646042E11D10948006940F00100BA
:102AA000074908612580F00200F02CF8064604482A
:102AB000006941F6FE71084001490861304670BD69
:102AC0000020024030B503460C461546002207E0C0
:102AD000184600F008F824F812009B1C501C82B223
:102AE000AA42F5DB30BD0146088870470248034919
:102AF0004860034848607047230167450020024052
:102B0000AB89EFCD00B502460423FFF797FF0346DC
:102B100003E0FFF793FF0346521E012B01D1002A69
:102B2000F7D102B90523184600BD2DE9F04105464D
:102B30000E461746002407E036F814102846FFF723
:102B4000A1FFAD1C601C84B2BC42F5DBBDE8F08186
:102B50002DE9F05F80468A461746B8F1006F02D330
:102B60003348804501D3BDE8F09FFFF7BFFFA8F1D0
:102B7000006B4FEA9B25CBF34809C9F50074A742C7
:102B800000D83C464EE04FF0006101EB85208A14EE
:102B90002849FFF797FF00260BE009EB06002549BF
:102BA00031F810004FF6FF71884200D003E0701C2E
:102BB00086B2A642F1D300BFA6421BD24FF00061FD
:102BC00001EB8520FFF714FF002608E03AF8160015
:102BD00009EB0601174A22F81100701C86B2A642C2
:102BE000F4D34FF0006101EB85208A141149FFF7FF
:102BF0009CFF04E0A2B251464046FFF796FFA74271
:102C000000D110E06D1C4FF000090AEB440A08EBFC
:102C10004408381B87B2B7F5007F02DD4FF400741B
:102C200000E03C46AFE700BFFFF722FF00BF9AE796
:102C300000000208240000202DE9F0410246002592
:102C40000026002000230024002791F803C00CF088
:102C50000F0591F803C00CF0100CBCF1000F03D06D
:102C600091F802C04CEA050591F800C0BCF1000FD4
:102C700031D0146800202BE04FF0010C0CFA00F367
:102C8000B1F800C00CEA03069E4220D183004FF049
:102C90000F0C0CFA03F7BC4305FA03FC4CEA0404DE
:102CA00091F803C0BCF1280F06D14FF0010C0CFACB
:102CB00000FCC2F814C00AE091F803C0BCF1480F50
:102CC00005D14FF0010C0CFA00FCC2F810C0401CFA
:102CD0000828D1D31460B1F800C0BCF1FF0F34DD77
:102CE000546800202EE000F1080C4FF0010808FAAB
:102CF0000CF3B1F800C00CEA03069E4221D1830018
:102D00004FF00F0C0CFA03F7BC4305FA03FC4CEA36
:102D1000040491F803C0BCF1280F05D100F1080CA0
:102D200008FA0CF8C2F8148091F803C0BCF1480FFF
:102D300007D100F1080C4FF0010808FA0CF8C2F8AE
:102D40001080401C0828CED35460BDE8F0810146B5
:102D500000200A78392A30D00ADCA2F13002092A90
:102D60003DD2DFE802F0181A1C1E2022242628007B
:102D7000652A2CD008DC612A21D0622A21D0632A5E
:102D800021D0642A2BD120E0662A22D0692A24D0BF
:102D9000702A24D11FE03F2023E0062021E05B20A1
:102DA0001FE04F201DE066201BE06D2019E07D2014
:102DB00017E0072015E07F2013E06F2011E0772057
:102DC0000FE07C200DE039200BE05E2009E0792047
:102DD00007E0712005E0732003E0302001E00020CF
:102DE00000BF00BF704700BFFEE700BFFEE77047AF
:102DF00070B5002100230F22C47804B3154C246859
:102E000004F4E064C4F5E064210AC1F10403CA409B
:102E1000447804FA03F184781440214309010E4CEC
:102E20000678A155047804F01F050124AC4005780C
:102E30006D11AD0005F1E025C5F8004109E0047809
:102E400004F01F050124AC40044D0678761145F8C6
:102E5000264070BD0CED00E000E400E080E100E001
:102E600002490143024A1160704700000000FA0560
:102E70000CED00E07047000029B1064AD269024318
:102E8000044BDA6104E0034AD2698243014BDA6100
:102E9000704700000010024029B1064A92690243BF
:102EA000044B9A6104E0034A92698243014B9A61A0
:102EB00070470000001002400F48006840F0010019
:102EC0000D490860084640680C4908400A494860B6
:102ED000084600680A490840074908600846006833
:102EE00020F4802008600846406820F4FE00486016
:102EF0004FF41F0088607047001002400000FFF888
:102F0000FFFFF6FE30B500210022002400232D4DE6
:102F10006D6805F00C0121B1042905D0082923D1E1
:102F200005E0294D056022E0274D05601FE0254D95
:102F30006D6805F47012234D6D6805F48034022528
:102F400005EB92421CB9214D554305600BE01D4D28
:102F50006D6805F400351DB11C4D5543056002E058
:102F6000194D5543056002E0174D056000BF00BFD5
:102F7000144D6D6805F0F0010909154D6B5C05688D
:102F8000DD4045600F4D6D6805F4E061090A104DA4
:102F90006B5C4568DD4085600A4D6D6805F46051E5
:102FA000C90A0B4D6B5C4568DD40C560054D6D6819
:102FB00005F44041890B074D6B5CC568B5FBF3F523
:102FC000056130BD0010024000127A0000093D008A
:102FD000080000201800002010B501460022002340
:102FE00000204A11012A02D1094C236806E0022A76
:102FF00002D1074C236A01E0054C636A01F01F020D
:10300000012494401C400CB1012000E0002010BDC0
:10301000001002400248406800F00C0070470000B9
:103020000010024001460020034A506820F0F000E2
:1030300008435060704700000010024011490968C1
:1030400021F480310F4A11601146096821F4802172
:103050001160B0F5803F03D0B0F5802F0ED106E0AF
:103060000849096841F48031064A116007E00549C2
:10307000096841F4A021034A116000E000BF00BFCD
:10308000704700000010024001460020034A5068CB
:1030900020F4E060084350607047000000100240D8
:1030A00001460020034A506820F4605040EAC10005
:1030B00050607047001002400149086670470000E8
:1030C0000000424202460020044B586820F47C1065
:1030D00042EA01031843014B586070470010024058
:1030E00001460020034A506820F003000843506066
:1030F000704700000010024010B5FFF7DDFE4FF4EE
:103100008030FFF79BFF00F024F8012820D1002039
:10311000FFF788FF0020FFF7C3FF4FF48060FFF741
:10312000B3FF4FF4E0114FF48030FFF7CBFF0120E5
:10313000FFF7C2FF00BF3920FFF74EFF0028FAD08B
:103140000220FFF7CDFF00BFFFF764FF0828FBD187
:1031500010BD38B5002000900024002500BF3120AC
:10316000FFF73AFF05460098401C00900098B0F524
:10317000A06F01D0002DF2D03120FFF72DFF08B154
:10318000012400E00024204638BD704710B500F04F
:1031900001F810BD0CB50020019000903348006884
:1031A00040F480303149086000BF3048006800F4C6
:1031B000003000900198401C0190009818B90198C7
:1031C000B0F5A06FF1D12948006800F4003010B1CB
:1031D0000120009001E0002000900098012843D1D8
:1031E0002348006840F01000214908600846006844
:1031F00020F0030008600846006840F00200086004
:103200001A484068194948600846406848600846BE
:10321000406840F4806048600846406820F47C10B4
:1032200048600846406840F4E81048600846006876
:1032300040F08070086000BF0C48006800F000702B
:103240000028F9D00948406820F003000749486089
:103250000846406840F00200486000BF03484068EC
:1032600000F00C000828F9D10CBD0000001002404D
:10327000002002407047000010B51248006840F07E
:10328000010010490860084640680F4908400D4990
:103290004860084600680D4908400A490860084629
:1032A000006820F4802008600846406820F4FE0092
:1032B00048604FF41F008860FFF768FF0448054925
:1032C000086010BD001002400000FFF8FFFFF6FE8E
:1032D0000028000808ED00E070B504460E461546CB
:1032E0002121482000F0C0F82146682000F0BCF8F9
:1032F00031466A2000F0B8F829466C2000F0B4F896
:1033000070BD000010B500240120094908600820A4
:1033100000F0C2FA00200749C1F8B00101E0601CCA
:10332000C4B203488438006808B1642CF7DB10BDD0
:10333000B00121420000214210B501200A49086075
:1033400000BF01200949C1F8AC01082000F0A4FA2F
:1033500000200549091F0860082000F09DFA0020A0
:103360000249C1F8B00110BDB00121420000214264
:1033700010B501200749086000BF00BF00200649C2
:10338000C1F8AC01082000F087FA01200149091FAB
:10339000086010BDB00121420000214270B5054611
:1033A0000024002015490860082000F075FA00BFCD
:1033B00021E0C4F1070045FA00F000F0010020B15F
:1033C00001200E49091F086003E000200B49091F76
:1033D0000860082000F060FA012008490860082011
:1033E00000F05AFA00200649C1F8B001082000F0A8
:1033F00053FA601CC4B2082CDBDB70BDB001214263
:103400000000214208B501210420FFF745FD1420EA
:103410008DF803004FF40060ADF8000003208DF834
:10342000020069460D48FFF707FC10208DF80300E5
:103430000002ADF8000003208DF80200694607483D
:10344000FFF7FAFB0120064908600649C1F8B00100
:103450002121482000F008F808BD000000080140C4
:10346000AC0121420000214270B505460C46FFF731
:1034700063FF2846FFF792FFFFF744FF2046FFF760
:103480008DFFFFF73FFFFFF773FF70BD70B5044678
:103490000E4615462121482000F0C0F8214668203C
:1034A00000F0BCF831466A2000F0B8F829466C20DC
:1034B00000F0B4F870BD000010B5002401200949E7
:1034C0000860082000F0E8F900200749C1F8A401CD
:1034D00001E0601CC4B203488438006808B1642C61
:1034E000F7DB10BDA48121420080214210B50120EC
:1034F0000A49086000BF01200949C1F8A00108205D
:1035000000F0CAF900200549091F0860082000F0F2
:10351000C3F900200249C1F8A40110BDA4812142D1
:103520000080214210B501200749086000BF00BF9C
:1035300000200649C1F8A001082000F0ADF90120E3
:103540000149091F086010BDA48121420080214269
:1035500070B505460024002015490860082000F0D9
:103560009BF900BF21E0C4F1070045FA00F000F02C
:10357000010020B101200E49091F086003E000206E
:103580000B49091F0860082000F086F9012008494E
:103590000860082000F080F900200649C1F8A40165
:1035A000082000F079F9601CC4B2082CDBDB70BD88
:1035B000A48121420080214208B501210820FFF7A3
:1035C0006BFC14208DF803004FF48070ADF8000000
:1035D00003208DF8020069460D48FFF72DFB1020EF
:1035E0008DF803004001ADF8000003208DF80200C3
:1035F00069460748FFF720FB012006490860064995
:10360000C1F8A4012121482000F008F808BD0000FD
:10361000000C0140A08121420080214270B5054686
:103620000C46FFF763FF2846FFF792FFFFF744FFC2
:103630002046FFF78DFFFFF73FFFFFF773FF70BDD9
:103640000B49098801F0200189B10949091D098840
:10365000C8B208490988B1F5705F08DA0649054A19
:103660001288885403490988491C024A118070470E
:10367000004400401E0000200010002010B586B05D
:10368000044601210520FFF707FC01214804FFF74C
:10369000F3FB0420ADF8140018208DF81700032068
:1036A0008DF8160005A91E48FFF7C6FA0820ADF8E8
:1036B000140004208DF8170005A91948FFF7BCFA7B
:1036C00001940020ADF80800ADF80A00ADF80C0038
:1036D000ADF810000C20ADF80E0001A9114800F063
:1036E00055F8012240F225510E4800F029F84FF418
:1036F000C060FFF7B5FB26208DF8000001208DF893
:10370000010003208DF8020001208DF803006846B7
:10371000FFF76EFB0121034800F006F806B010BD6C
:10372000000801400044004021B1828942F4005267
:10373000828104E082894DF6FF731A4082817047CE
:10374000F0B50346002400260025002040F66A1745
:10375000B94200D100BF1846C1F3421401F01F0660
:10376000012707FA06F5012C01D10C3004E0022CE8
:1037700001D1103000E014301AB107682F43076000
:1037800002E00768AF430760F0BD00002DE9F04795
:1037900086B005460E460024A24600BFA14600277B
:1037A000B08900B100BF2F462C8A4CF6FF70044050
:1037B000F08804432C82AC894EF6F3100440B088A4
:1037C00031890843718908430443AC81AC8A4FF6C0
:1037D000FF400440B0890443AC8201A8FFF792FB8C
:1037E0001F48874202D1DDF810A001E0DDF80CA0EF
:1037F000A88900F4004040B10AEBCA0000EB0A10AF
:1038000031684900B0FBF1F807E00AEBCA0000EBB1
:103810000A1031688900B0FBF1F86420B8FBF0F0C1
:1038200004012009642101FB1089A88900F40040EB
:1038300040B1322000EBC900B0FBF1F000F007000E
:10384000044308E0322000EB09106421B0FBF1F0E2
:1038500000F00F0004432C8106B0BDE8F0870000A3
:103860000038014000BFFEE702E008C8121F08C18F
:10387000002AFAD170477047002001E001C1121FF1
:10388000002AFBD170474FF4FA5200FB02F100BF4F
:103890004A1E1100FCD17047C10000BF4A1E110032
:1038A000FCD1704710B50446206807490840B0F1C4
:1038B000005F08D16068054908602068FFF720F8BC
:1038C00002480068804710BD0000FE2F2000002045
:1038D0001CB5FFF711FC4FF4E130FFF7CFFEFFF707
:1038E00091FDFFF769FE0024002500263EE0601CE4
:1038F000C4B2642C05D10024012D01D1002500E0C3
:1039000001251DB91AA0FFF74AF802E01AA0FFF737
:1039100046F81B48008830B319480088864220D1F9
:10392000174801781748FFF71DF8B8B90020144967
:103930000880154F41F234200190012201A9384638
:10394000FFF706F900200090012269463846FFF78C
:10395000B9F84FF00060FFF7A5FF02E0002008492A
:103960000880074806880A20FFF78DFFBFE70000A0
:1039700061707031313100002020202020200000B3
:103980001E0000200010002000240008AC390008B0
:10399000000000202400000068380008D03900082A
:1039A00024000020DC4B00007838000801020304EA
:1039B00004030201000000000102030401020304E9
:1039C00006070809020406080000000000000000C5
:04000005080028EDDA
:00000001FF
